{
  "_format": "hh-sol-artifact-1",
  "contractName": "Domains",
  "sourceName": "contracts/Domains.sol",
  "abi": [
    {
      "inputs": [
        {
          "internalType": "string",
          "name": "_tld",
          "type": "string"
        }
      ],
      "stateMutability": "payable",
      "type": "constructor"
    },
    {
      "inputs": [],
      "name": "AlreadyRegistered",
      "type": "error"
    },
    {
      "inputs": [
        {
          "internalType": "string",
          "name": "name",
          "type": "string"
        }
      ],
      "name": "InvalidName",
      "type": "error"
    },
    {
      "inputs": [],
      "name": "Unauthorized",
      "type": "error"
    },
    {
      "anonymous": false,
      "inputs": [
        {
          "indexed": true,
          "internalType": "address",
          "name": "owner",
          "type": "address"
        },
        {
          "indexed": true,
          "internalType": "address",
          "name": "approved",
          "type": "address"
        },
        {
          "indexed": true,
          "internalType": "uint256",
          "name": "tokenId",
          "type": "uint256"
        }
      ],
      "name": "Approval",
      "type": "event"
    },
    {
      "anonymous": false,
      "inputs": [
        {
          "indexed": true,
          "internalType": "address",
          "name": "owner",
          "type": "address"
        },
        {
          "indexed": true,
          "internalType": "address",
          "name": "operator",
          "type": "address"
        },
        {
          "indexed": false,
          "internalType": "bool",
          "name": "approved",
          "type": "bool"
        }
      ],
      "name": "ApprovalForAll",
      "type": "event"
    },
    {
      "anonymous": false,
      "inputs": [
        {
          "indexed": true,
          "internalType": "address",
          "name": "from",
          "type": "address"
        },
        {
          "indexed": true,
          "internalType": "address",
          "name": "to",
          "type": "address"
        },
        {
          "indexed": true,
          "internalType": "uint256",
          "name": "tokenId",
          "type": "uint256"
        }
      ],
      "name": "Transfer",
      "type": "event"
    },
    {
      "inputs": [
        {
          "internalType": "address",
          "name": "to",
          "type": "address"
        },
        {
          "internalType": "uint256",
          "name": "tokenId",
          "type": "uint256"
        }
      ],
      "name": "approve",
      "outputs": [],
      "stateMutability": "nonpayable",
      "type": "function"
    },
    {
      "inputs": [
        {
          "internalType": "address",
          "name": "owner",
          "type": "address"
        }
      ],
      "name": "balanceOf",
      "outputs": [
        {
          "internalType": "uint256",
          "name": "",
          "type": "uint256"
        }
      ],
      "stateMutability": "view",
      "type": "function"
    },
    {
      "inputs": [
        {
          "internalType": "string",
          "name": "",
          "type": "string"
        }
      ],
      "name": "domains",
      "outputs": [
        {
          "internalType": "address",
          "name": "",
          "type": "address"
        }
      ],
      "stateMutability": "view",
      "type": "function"
    },
    {
      "inputs": [
        {
          "internalType": "string",
          "name": "name",
          "type": "string"
        }
      ],
      "name": "getAddress",
      "outputs": [
        {
          "internalType": "address",
          "name": "",
          "type": "address"
        }
      ],
      "stateMutability": "view",
      "type": "function"
    },
    {
      "inputs": [],
      "name": "getAllNames",
      "outputs": [
        {
          "internalType": "string[]",
          "name": "",
          "type": "string[]"
        }
      ],
      "stateMutability": "view",
      "type": "function"
    },
    {
      "inputs": [
        {
          "internalType": "uint256",
          "name": "tokenId",
          "type": "uint256"
        }
      ],
      "name": "getApproved",
      "outputs": [
        {
          "internalType": "address",
          "name": "",
          "type": "address"
        }
      ],
      "stateMutability": "view",
      "type": "function"
    },
    {
      "inputs": [
        {
          "internalType": "string",
          "name": "name",
          "type": "string"
        }
      ],
      "name": "getRecord",
      "outputs": [
        {
          "internalType": "string",
          "name": "",
          "type": "string"
        }
      ],
      "stateMutability": "view",
      "type": "function"
    },
    {
      "inputs": [
        {
          "internalType": "address",
          "name": "owner",
          "type": "address"
        },
        {
          "internalType": "address",
          "name": "operator",
          "type": "address"
        }
      ],
      "name": "isApprovedForAll",
      "outputs": [
        {
          "internalType": "bool",
          "name": "",
          "type": "bool"
        }
      ],
      "stateMutability": "view",
      "type": "function"
    },
    {
      "inputs": [],
      "name": "isOwner",
      "outputs": [
        {
          "internalType": "bool",
          "name": "",
          "type": "bool"
        }
      ],
      "stateMutability": "view",
      "type": "function"
    },
    {
      "inputs": [],
      "name": "name",
      "outputs": [
        {
          "internalType": "string",
          "name": "",
          "type": "string"
        }
      ],
      "stateMutability": "view",
      "type": "function"
    },
    {
      "inputs": [
        {
          "internalType": "uint256",
          "name": "",
          "type": "uint256"
        }
      ],
      "name": "names",
      "outputs": [
        {
          "internalType": "string",
          "name": "",
          "type": "string"
        }
      ],
      "stateMutability": "view",
      "type": "function"
    },
    {
      "inputs": [],
      "name": "owner",
      "outputs": [
        {
          "internalType": "address payable",
          "name": "",
          "type": "address"
        }
      ],
      "stateMutability": "view",
      "type": "function"
    },
    {
      "inputs": [
        {
          "internalType": "uint256",
          "name": "tokenId",
          "type": "uint256"
        }
      ],
      "name": "ownerOf",
      "outputs": [
        {
          "internalType": "address",
          "name": "",
          "type": "address"
        }
      ],
      "stateMutability": "view",
      "type": "function"
    },
    {
      "inputs": [
        {
          "internalType": "string",
          "name": "name",
          "type": "string"
        }
      ],
      "name": "price",
      "outputs": [
        {
          "internalType": "uint256",
          "name": "",
          "type": "uint256"
        }
      ],
      "stateMutability": "pure",
      "type": "function"
    },
    {
      "inputs": [
        {
          "internalType": "string",
          "name": "",
          "type": "string"
        }
      ],
      "name": "records",
      "outputs": [
        {
          "internalType": "string",
          "name": "",
          "type": "string"
        }
      ],
      "stateMutability": "view",
      "type": "function"
    },
    {
      "inputs": [
        {
          "internalType": "string",
          "name": "name",
          "type": "string"
        }
      ],
      "name": "register",
      "outputs": [],
      "stateMutability": "payable",
      "type": "function"
    },
    {
      "inputs": [
        {
          "internalType": "address",
          "name": "from",
          "type": "address"
        },
        {
          "internalType": "address",
          "name": "to",
          "type": "address"
        },
        {
          "internalType": "uint256",
          "name": "tokenId",
          "type": "uint256"
        }
      ],
      "name": "safeTransferFrom",
      "outputs": [],
      "stateMutability": "nonpayable",
      "type": "function"
    },
    {
      "inputs": [
        {
          "internalType": "address",
          "name": "from",
          "type": "address"
        },
        {
          "internalType": "address",
          "name": "to",
          "type": "address"
        },
        {
          "internalType": "uint256",
          "name": "tokenId",
          "type": "uint256"
        },
        {
          "internalType": "bytes",
          "name": "data",
          "type": "bytes"
        }
      ],
      "name": "safeTransferFrom",
      "outputs": [],
      "stateMutability": "nonpayable",
      "type": "function"
    },
    {
      "inputs": [
        {
          "internalType": "address",
          "name": "operator",
          "type": "address"
        },
        {
          "internalType": "bool",
          "name": "approved",
          "type": "bool"
        }
      ],
      "name": "setApprovalForAll",
      "outputs": [],
      "stateMutability": "nonpayable",
      "type": "function"
    },
    {
      "inputs": [
        {
          "internalType": "string",
          "name": "name",
          "type": "string"
        },
        {
          "internalType": "string",
          "name": "record",
          "type": "string"
        }
      ],
      "name": "setRecord",
      "outputs": [],
      "stateMutability": "nonpayable",
      "type": "function"
    },
    {
      "inputs": [
        {
          "internalType": "bytes4",
          "name": "interfaceId",
          "type": "bytes4"
        }
      ],
      "name": "supportsInterface",
      "outputs": [
        {
          "internalType": "bool",
          "name": "",
          "type": "bool"
        }
      ],
      "stateMutability": "view",
      "type": "function"
    },
    {
      "inputs": [],
      "name": "symbol",
      "outputs": [
        {
          "internalType": "string",
          "name": "",
          "type": "string"
        }
      ],
      "stateMutability": "view",
      "type": "function"
    },
    {
      "inputs": [],
      "name": "tld",
      "outputs": [
        {
          "internalType": "string",
          "name": "",
          "type": "string"
        }
      ],
      "stateMutability": "view",
      "type": "function"
    },
    {
      "inputs": [
        {
          "internalType": "uint256",
          "name": "tokenId",
          "type": "uint256"
        }
      ],
      "name": "tokenURI",
      "outputs": [
        {
          "internalType": "string",
          "name": "",
          "type": "string"
        }
      ],
      "stateMutability": "view",
      "type": "function"
    },
    {
      "inputs": [
        {
          "internalType": "address",
          "name": "from",
          "type": "address"
        },
        {
          "internalType": "address",
          "name": "to",
          "type": "address"
        },
        {
          "internalType": "uint256",
          "name": "tokenId",
          "type": "uint256"
        }
      ],
      "name": "transferFrom",
      "outputs": [],
      "stateMutability": "nonpayable",
      "type": "function"
    },
    {
      "inputs": [
        {
          "internalType": "string",
          "name": "name",
          "type": "string"
        }
      ],
      "name": "valid",
      "outputs": [
        {
          "internalType": "bool",
          "name": "",
          "type": "bool"
        }
      ],
      "stateMutability": "pure",
      "type": "function"
    },
    {
      "inputs": [],
      "name": "withdraw",
      "outputs": [],
      "stateMutability": "nonpayable",
      "type": "function"
    }
  ],
  "bytecode": "0x6080604052604051806108a0016040528061086b815260200162004ccc61086b9139600a908051906020019062000038929190620002c4565b506040518060400160405280600d81526020017f3c2f746578743e3c2f7376673e00000000000000000000000000000000000000815250600b908051906020019062000086929190620002c4565b5060405162005537380380620055378339818101604052810190620000ac9190620003e6565b6040518060400160405280601581526020017f416c706861204e616d65205365727669636520563200000000000000000000008152506040518060400160405280600381526020017f414e530000000000000000000000000000000000000000000000000000000000815250816000908051906020019062000130929190620002c4565b50806001908051906020019062000149929190620002c4565b50505033600760006101000a81548173ffffffffffffffffffffffffffffffffffffffff021916908373ffffffffffffffffffffffffffffffffffffffff1602179055508060099080519060200190620001a5929190620002c4565b50620001f16040518060400160405280601481526020017f446f6d61696e7320696e697469616c697a656421000000000000000000000000815250620001f860201b62001a111760201c565b506200061c565b62000298816040516024016200020f91906200046c565b6040516020818303038152906040527f41304fac000000000000000000000000000000000000000000000000000000007bffffffffffffffffffffffffffffffffffffffffffffffffffffffff19166020820180517bffffffffffffffffffffffffffffffffffffffffffffffffffffffff83818316178352505050506200029b60201b60201c565b50565b60008151905060006a636f6e736f6c652e6c6f679050602083016000808483855afa5050505050565b828054620002d29062000541565b90600052602060002090601f016020900481019282620002f6576000855562000342565b82601f106200031157805160ff191683800117855562000342565b8280016001018555821562000342579182015b828111156200034157825182559160200191906001019062000324565b5b50905062000351919062000355565b5090565b5b808211156200037057600081600090555060010162000356565b5090565b60006200038b6200038584620004b9565b62000490565b905082815260208101848484011115620003a457600080fd5b620003b18482856200050b565b509392505050565b600082601f830112620003cb57600080fd5b8151620003dd84826020860162000374565b91505092915050565b600060208284031215620003f957600080fd5b600082015167ffffffffffffffff8111156200041457600080fd5b6200042284828501620003b9565b91505092915050565b60006200043882620004ef565b620004448185620004fa565b9350620004568185602086016200050b565b62000461816200060b565b840191505092915050565b600060208201905081810360008301526200048881846200042b565b905092915050565b60006200049c620004af565b9050620004aa828262000577565b919050565b6000604051905090565b600067ffffffffffffffff821115620004d757620004d6620005dc565b5b620004e2826200060b565b9050602081019050919050565b600081519050919050565b600082825260208201905092915050565b60005b838110156200052b5780820151818401526020810190506200050e565b838111156200053b576000848401525b50505050565b600060028204905060018216806200055a57607f821691505b60208210811415620005715762000570620005ad565b5b50919050565b62000582826200060b565b810181811067ffffffffffffffff82111715620005a457620005a3620005dc565b5b80604052505050565b7f4e487b7100000000000000000000000000000000000000000000000000000000600052602260045260246000fd5b7f4e487b7100000000000000000000000000000000000000000000000000000000600052604160045260246000fd5b6000601f19601f8301169050919050565b6146a0806200062c6000396000f3fe60806040526004361061019c5760003560e01c806370a08231116100ec578063bf40fac11161008a578063e985e9c511610064578063e985e9c514610624578063f2c298be14610661578063fb825e5f1461067d578063fe2c6198146106a85761019c565b8063bf40fac114610581578063c1880a98146105be578063c87b56dd146105e75761019c565b806395d89b41116100c657806395d89b41146104c75780639791c097146104f2578063a22cb4651461052f578063b88d4fde146105585761019c565b806370a08231146104345780638da5cb5b146104715780638f32d59b1461049c5761019c565b8063264492351161015957806342842e0e1161013357806342842e0e146103545780634622ab031461037d578063541e771d146103ba5780636352211e146103f75761019c565b806326449235146102d55780632d551432146103125780633ccfd60b1461033d5761019c565b806301ffc9a7146101a157806306fdde03146101de578063081812fc14610209578063095ea7b31461024657806311dd88451461026f57806323b872dd146102ac575b600080fd5b3480156101ad57600080fd5b506101c860048036038101906101c391906130dd565b6106e5565b6040516101d5919061397b565b60405180910390f35b3480156101ea57600080fd5b506101f36107c7565b60405161020091906139ba565b60405180910390f35b34801561021557600080fd5b50610230600480360381019061022b919061322a565b610859565b60405161023d91906138d7565b60405180910390f35b34801561025257600080fd5b5061026d600480360381019061026891906130a1565b61089f565b005b34801561027b57600080fd5b506102966004803603810190610291919061312f565b6109b7565b6040516102a391906139ba565b60405180910390f35b3480156102b857600080fd5b506102d360048036038101906102ce9190612f9b565b610a6a565b005b3480156102e157600080fd5b506102fc60048036038101906102f791906131e9565b610aca565b60405161030991906138d7565b60405180910390f35b34801561031e57600080fd5b50610327610b13565b60405161033491906139ba565b60405180910390f35b34801561034957600080fd5b50610352610ba1565b005b34801561036057600080fd5b5061037b60048036038101906103769190612f9b565b610c67565b005b34801561038957600080fd5b506103a4600480360381019061039f919061322a565b610c87565b6040516103b191906139ba565b60405180910390f35b3480156103c657600080fd5b506103e160048036038101906103dc91906131e9565b610d27565b6040516103ee91906139ba565b60405180910390f35b34801561040357600080fd5b5061041e6004803603810190610419919061322a565b610ddd565b60405161042b91906138d7565b60405180910390f35b34801561044057600080fd5b5061045b60048036038101906104569190612f36565b610e8f565b6040516104689190613bd3565b60405180910390f35b34801561047d57600080fd5b50610486610f47565b60405161049391906138f2565b60405180910390f35b3480156104a857600080fd5b506104b1610f6d565b6040516104be919061397b565b60405180910390f35b3480156104d357600080fd5b506104dc610fc5565b6040516104e991906139ba565b60405180910390f35b3480156104fe57600080fd5b506105196004803603810190610514919061312f565b611057565b604051610526919061397b565b60405180910390f35b34801561053b57600080fd5b5061055660048036038101906105519190613065565b61110b565b005b34801561056457600080fd5b5061057f600480360381019061057a9190612fea565b611121565b005b34801561058d57600080fd5b506105a860048036038101906105a3919061312f565b611183565b6040516105b591906138d7565b60405180910390f35b3480156105ca57600080fd5b506105e560048036038101906105e09190613174565b6111ce565b005b3480156105f357600080fd5b5061060e6004803603810190610609919061322a565b6112a9565b60405161061b91906139ba565b60405180910390f35b34801561063057600080fd5b5061064b60048036038101906106469190612f5f565b6113bc565b604051610658919061397b565b60405180910390f35b61067b6004803603810190610676919061312f565b611450565b005b34801561068957600080fd5b506106926117dc565b60405161069f9190613959565b60405180910390f35b3480156106b457600080fd5b506106cf60048036038101906106ca919061312f565b61196e565b6040516106dc9190613bd3565b60405180910390f35b60007f80ac58cd000000000000000000000000000000000000000000000000000000007bffffffffffffffffffffffffffffffffffffffffffffffffffffffff1916827bffffffffffffffffffffffffffffffffffffffffffffffffffffffff191614806107b057507f5b5e139f000000000000000000000000000000000000000000000000000000007bffffffffffffffffffffffffffffffffffffffffffffffffffffffff1916827bffffffffffffffffffffffffffffffffffffffffffffffffffffffff1916145b806107c057506107bf82611aaa565b5b9050919050565b6060600080546107d690613eff565b80601f016020809104026020016040519081016040528092919081815260200182805461080290613eff565b801561084f5780601f106108245761010080835404028352916020019161084f565b820191906000526020600020905b81548152906001019060200180831161083257829003601f168201915b5050505050905090565b600061086482611b14565b6004600083815260200190815260200160002060009054906101000a900473ffffffffffffffffffffffffffffffffffffffff169050919050565b60006108aa82610ddd565b90508073ffffffffffffffffffffffffffffffffffffffff168373ffffffffffffffffffffffffffffffffffffffff16141561091b576040517f08c379a000000000000000000000000000000000000000000000000000000000815260040161091290613b73565b60405180910390fd5b8073ffffffffffffffffffffffffffffffffffffffff1661093a611b5f565b73ffffffffffffffffffffffffffffffffffffffff161480610969575061096881610963611b5f565b6113bc565b5b6109a8576040517f08c379a000000000000000000000000000000000000000000000000000000000815260040161099f90613b13565b60405180910390fd5b6109b28383611b67565b505050565b6060600d83836040516109cb9291906137a4565b908152602001604051809103902080546109e490613eff565b80601f0160208091040260200160405190810160405280929190818152602001828054610a1090613eff565b8015610a5d5780601f10610a3257610100808354040283529160200191610a5d565b820191906000526020600020905b815481529060010190602001808311610a4057829003601f168201915b5050505050905092915050565b610a7b610a75611b5f565b82611c20565b610aba576040517f08c379a0000000000000000000000000000000000000000000000000000000008152600401610ab190613bb3565b60405180910390fd5b610ac5838383611cb5565b505050565b600c818051602081018201805184825260208301602085012081835280955050505050506000915054906101000a900473ffffffffffffffffffffffffffffffffffffffff1681565b60098054610b2090613eff565b80601f0160208091040260200160405190810160405280929190818152602001828054610b4c90613eff565b8015610b995780601f10610b6e57610100808354040283529160200191610b99565b820191906000526020600020905b815481529060010190602001808311610b7c57829003601f168201915b505050505081565b610ba9610f6d565b610bb257600080fd5b600047905060003373ffffffffffffffffffffffffffffffffffffffff1682604051610bdd906138c2565b60006040518083038185875af1925050503d8060008114610c1a576040519150601f19603f3d011682016040523d82523d6000602084013e610c1f565b606091505b5050905080610c63576040517f08c379a0000000000000000000000000000000000000000000000000000000008152600401610c5a90613ab3565b60405180910390fd5b5050565b610c8283838360405180602001604052806000815250611121565b505050565b600e6020528060005260406000206000915090508054610ca690613eff565b80601f0160208091040260200160405190810160405280929190818152602001828054610cd290613eff565b8015610d1f5780601f10610cf457610100808354040283529160200191610d1f565b820191906000526020600020905b815481529060010190602001808311610d0257829003601f168201915b505050505081565b600d818051602081018201805184825260208301602085012081835280955050505050506000915090508054610d5c90613eff565b80601f0160208091040260200160405190810160405280929190818152602001828054610d8890613eff565b8015610dd55780601f10610daa57610100808354040283529160200191610dd5565b820191906000526020600020905b815481529060010190602001808311610db857829003601f168201915b505050505081565b6000806002600084815260200190815260200160002060009054906101000a900473ffffffffffffffffffffffffffffffffffffffff169050600073ffffffffffffffffffffffffffffffffffffffff168173ffffffffffffffffffffffffffffffffffffffff161415610e86576040517f08c379a0000000000000000000000000000000000000000000000000000000008152600401610e7d90613b53565b60405180910390fd5b80915050919050565b60008073ffffffffffffffffffffffffffffffffffffffff168273ffffffffffffffffffffffffffffffffffffffff161415610f00576040517f08c379a0000000000000000000000000000000000000000000000000000000008152600401610ef790613ad3565b60405180910390fd5b600360008373ffffffffffffffffffffffffffffffffffffffff1673ffffffffffffffffffffffffffffffffffffffff168152602001908152602001600020549050919050565b600760009054906101000a900473ffffffffffffffffffffffffffffffffffffffff1681565b6000600760009054906101000a900473ffffffffffffffffffffffffffffffffffffffff1673ffffffffffffffffffffffffffffffffffffffff163373ffffffffffffffffffffffffffffffffffffffff1614905090565b606060018054610fd490613eff565b80601f016020809104026020016040519081016040528092919081815260200182805461100090613eff565b801561104d5780601f106110225761010080835404028352916020019161104d565b820191906000526020600020905b81548152906001019060200180831161103057829003601f168201915b5050505050905090565b600060036110a884848080601f016020809104026020016040519081016040528093929190818152602001838380828437600081840152601f19601f82011690508083019250505050505050611f1c565b101580156111035750600a61110084848080601f016020809104026020016040519081016040528093929190818152602001838380828437600081840152601f19601f82011690508083019250505050505050611f1c565b11155b905092915050565b61111d611116611b5f565b83836120f7565b5050565b61113261112c611b5f565b83611c20565b611171576040517f08c379a000000000000000000000000000000000000000000000000000000000815260040161116890613bb3565b60405180910390fd5b61117d84848484612264565b50505050565b6000600c83836040516111979291906137a4565b908152602001604051809103902060009054906101000a900473ffffffffffffffffffffffffffffffffffffffff16905092915050565b600c84846040516111e09291906137a4565b908152602001604051809103902060009054906101000a900473ffffffffffffffffffffffffffffffffffffffff1673ffffffffffffffffffffffffffffffffffffffff163373ffffffffffffffffffffffffffffffffffffffff1614611273576040517f82b4290000000000000000000000000000000000000000000000000000000000815260040160405180910390fd5b8181600d86866040516112879291906137a4565b908152602001604051809103902091906112a2929190612c8a565b5050505050565b60606112b482611b14565b60006006600084815260200190815260200160002080546112d490613eff565b80601f016020809104026020016040519081016040528092919081815260200182805461130090613eff565b801561134d5780601f106113225761010080835404028352916020019161134d565b820191906000526020600020905b81548152906001019060200180831161133057829003601f168201915b50505050509050600061135e6122c0565b90506000815114156113745781925050506113b7565b6000825111156113a95780826040516020016113919291906137ee565b604051602081830303815290604052925050506113b7565b6113b2846122d7565b925050505b919050565b6000600560008473ffffffffffffffffffffffffffffffffffffffff1673ffffffffffffffffffffffffffffffffffffffff16815260200190815260200160002060008373ffffffffffffffffffffffffffffffffffffffff1673ffffffffffffffffffffffffffffffffffffffff16815260200190815260200160002060009054906101000a900460ff16905092915050565b600073ffffffffffffffffffffffffffffffffffffffff16600c838360405161147a9291906137a4565b908152602001604051809103902060009054906101000a900473ffffffffffffffffffffffffffffffffffffffff1673ffffffffffffffffffffffffffffffffffffffff16146114f6576040517f3a81d6fc00000000000000000000000000000000000000000000000000000000815260040160405180910390fd5b6115008282611057565b6115435781816040517f7f19f48d00000000000000000000000000000000000000000000000000000000815260040161153a929190613996565b60405180910390fd5b600061154f838361196e565b905080341015611594576040517f08c379a000000000000000000000000000000000000000000000000000000000815260040161158b90613b93565b60405180910390fd5b6000838360096040516020016115ac939291906137bd565b60405160208183030381529060405290506000600a82600b6040516020016115d693929190613812565b604051602081830303815290604052905060006115f3600861233f565b9050600061164487878080601f016020809104026020016040519081016040528093929190818152602001838380828437600081840152601f19601f82011690508083019250505050505050611f1c565b905060006116518261234d565b9050600061168986611662876124fa565b8460405160200161167593929190613843565b6040516020818303038152906040526124fa565b905060008160405160200161169e91906138a0565b60405160208183030381529060405290506116d06040518060600160405280603981526020016145b960399139611a11565b61170f6040518060400160405280600e81526020017f46696e616c20746f6b656e555249000000000000000000000000000000000000815250826126b8565b6117306040518060600160405280603981526020016145f260399139611a11565b61173a3386612754565b6117448582612772565b33600c8b8b6040516117579291906137a4565b908152602001604051809103902060006101000a81548173ffffffffffffffffffffffffffffffffffffffff021916908373ffffffffffffffffffffffffffffffffffffffff1602179055508989600e600088815260200190815260200160002091906117c5929190612c8a565b506117d060086127e6565b50505050505050505050565b606060006117ea600861233f565b67ffffffffffffffff811115611829577f4e487b7100000000000000000000000000000000000000000000000000000000600052604160045260246000fd5b60405190808252806020026020018201604052801561185c57816020015b60608152602001906001900390816118475790505b50905060005b61186c600861233f565b81101561196657600e6000828152602001908152602001600020805461189190613eff565b80601f01602080910402602001604051908101604052809291908181526020018280546118bd90613eff565b801561190a5780601f106118df5761010080835404028352916020019161190a565b820191906000526020600020905b8154815290600101906020018083116118ed57829003601f168201915b5050505050828281518110611948577f4e487b7100000000000000000000000000000000000000000000000000000000600052603260045260246000fd5b6020026020010181905250808061195e90613f62565b915050611862565b508091505090565b6000806119be84848080601f016020809104026020016040519081016040528093929190818152602001838380828437600081840152601f19601f82011690508083019250505050505050611f1c565b9050600081116119cd57600080fd5b60038114156119e6576611c37937e08000915050611a0b565b60048114156119ff57660aa87bee538000915050611a0b565b66038d7ea4c680009150505b92915050565b611aa781604051602401611a2591906139ba565b6040516020818303038152906040527f41304fac000000000000000000000000000000000000000000000000000000007bffffffffffffffffffffffffffffffffffffffffffffffffffffffff19166020820180517bffffffffffffffffffffffffffffffffffffffffffffffffffffffff83818316178352505050506127fc565b50565b60007f01ffc9a7000000000000000000000000000000000000000000000000000000007bffffffffffffffffffffffffffffffffffffffffffffffffffffffff1916827bffffffffffffffffffffffffffffffffffffffffffffffffffffffff1916149050919050565b611b1d81612825565b611b5c576040517f08c379a0000000000000000000000000000000000000000000000000000000008152600401611b5390613b53565b60405180910390fd5b50565b600033905090565b816004600083815260200190815260200160002060006101000a81548173ffffffffffffffffffffffffffffffffffffffff021916908373ffffffffffffffffffffffffffffffffffffffff160217905550808273ffffffffffffffffffffffffffffffffffffffff16611bda83610ddd565b73ffffffffffffffffffffffffffffffffffffffff167f8c5be1e5ebec7d5bd14f71427d1e84f3dd0314c0f7b2291e5b200ac8c7c3b92560405160405180910390a45050565b600080611c2c83610ddd565b90508073ffffffffffffffffffffffffffffffffffffffff168473ffffffffffffffffffffffffffffffffffffffff161480611c6e5750611c6d81856113bc565b5b80611cac57508373ffffffffffffffffffffffffffffffffffffffff16611c9484610859565b73ffffffffffffffffffffffffffffffffffffffff16145b91505092915050565b8273ffffffffffffffffffffffffffffffffffffffff16611cd582610ddd565b73ffffffffffffffffffffffffffffffffffffffff1614611d2b576040517f08c379a0000000000000000000000000000000000000000000000000000000008152600401611d2290613a33565b60405180910390fd5b600073ffffffffffffffffffffffffffffffffffffffff168273ffffffffffffffffffffffffffffffffffffffff161415611d9b576040517f08c379a0000000000000000000000000000000000000000000000000000000008152600401611d9290613a73565b60405180910390fd5b611da6838383612891565b611db1600082611b67565b6001600360008573ffffffffffffffffffffffffffffffffffffffff1673ffffffffffffffffffffffffffffffffffffffff1681526020019081526020016000206000828254611e019190613e03565b925050819055506001600360008473ffffffffffffffffffffffffffffffffffffffff1673ffffffffffffffffffffffffffffffffffffffff1681526020019081526020016000206000828254611e589190613d22565b92505081905550816002600083815260200190815260200160002060006101000a81548173ffffffffffffffffffffffffffffffffffffffff021916908373ffffffffffffffffffffffffffffffffffffffff160217905550808273ffffffffffffffffffffffffffffffffffffffff168473ffffffffffffffffffffffffffffffffffffffff167fddf252ad1be2c89b69c2b068fc378daa952ba7f163c4a11628f55a4df523b3ef60405160405180910390a4611f17838383612896565b505050565b60008060008084519050600092505b808210156120ec576000858381518110611f6e577f4e487b7100000000000000000000000000000000000000000000000000000000600052603260045260246000fd5b602001015160f81c60f81b9050608060f81b817effffffffffffffffffffffffffffffffffffffffffffffffffffffffffffff19161015611fbd57600183611fb69190613d22565b92506120d8565b60e060f81b817effffffffffffffffffffffffffffffffffffffffffffffffffffffffffffff19161015611fff57600283611ff89190613d22565b92506120d7565b60f060f81b817effffffffffffffffffffffffffffffffffffffffffffffffffffffffffffff191610156120415760038361203a9190613d22565b92506120d6565b60f8801b817effffffffffffffffffffffffffffffffffffffffffffffffffffffffffffff191610156120825760048361207b9190613d22565b92506120d5565b60fc60f81b817effffffffffffffffffffffffffffffffffffffffffffffffffffffffffffff191610156120c4576005836120bd9190613d22565b92506120d4565b6006836120d19190613d22565b92505b5b5b5b5b5082806120e490613f62565b935050611f2b565b829350505050919050565b8173ffffffffffffffffffffffffffffffffffffffff168373ffffffffffffffffffffffffffffffffffffffff161415612166576040517f08c379a000000000000000000000000000000000000000000000000000000000815260040161215d90613a93565b60405180910390fd5b80600560008573ffffffffffffffffffffffffffffffffffffffff1673ffffffffffffffffffffffffffffffffffffffff16815260200190815260200160002060008473ffffffffffffffffffffffffffffffffffffffff1673ffffffffffffffffffffffffffffffffffffffff16815260200190815260200160002060006101000a81548160ff0219169083151502179055508173ffffffffffffffffffffffffffffffffffffffff168373ffffffffffffffffffffffffffffffffffffffff167f17307eab39ab6107e8899845ad3d59bd9653f200f220920489ca2b5937696c3183604051612257919061397b565b60405180910390a3505050565b61226f848484611cb5565b61227b8484848461289b565b6122ba576040517f08c379a00000000000000000000000000000000000000000000000000000000081526004016122b190613a13565b60405180910390fd5b50505050565b606060405180602001604052806000815250905090565b60606122e282611b14565b60006122ec6122c0565b9050600081511161230c5760405180602001604052806000815250612337565b806123168461234d565b6040516020016123279291906137ee565b6040516020818303038152906040525b915050919050565b600081600001549050919050565b60606000821415612395576040518060400160405280600181526020017f300000000000000000000000000000000000000000000000000000000000000081525090506124f5565b600082905060005b600082146123c75780806123b090613f62565b915050600a826123c09190613d78565b915061239d565b60008167ffffffffffffffff811115612409577f4e487b7100000000000000000000000000000000000000000000000000000000600052604160045260246000fd5b6040519080825280601f01601f19166020018201604052801561243b5781602001600182028036833780820191505090505b5090505b600085146124ee576001826124549190613e03565b9150600a856124639190613fab565b603061246f9190613d22565b60f81b8183815181106124ab577f4e487b7100000000000000000000000000000000000000000000000000000000600052603260045260246000fd5b60200101907effffffffffffffffffffffffffffffffffffffffffffffffffffffffffffff1916908160001a905350600a856124e79190613d78565b945061243f565b8093505050505b919050565b6060600082519050600081141561252357604051806020016040528060008152509150506126b3565b600060036002836125349190613d22565b61253e9190613d78565b600461254a9190613da9565b9050600060208261255b9190613d22565b67ffffffffffffffff81111561259a577f4e487b7100000000000000000000000000000000000000000000000000000000600052604160045260246000fd5b6040519080825280601f01601f1916602001820160405280156125cc5781602001600182028036833780820191505090505b509050600060405180606001604052806040815260200161462b604091399050600181016020830160005b868110156126705760038101905062ffffff818a015116603f8160121c168401518060081b905060ff603f83600c1c1686015116810190508060081b905060ff603f8360061c1686015116810190508060081b905060ff603f831686015116810190508060e01b905080845260048401935050506125f7565b50600386066001811461268a576002811461269a576126a5565b613d3d60f01b60028303526126a5565b603d60f81b60018303525b508484525050819450505050505b919050565b61275082826040516024016126ce9291906139dc565b6040516020818303038152906040527f4b5c4277000000000000000000000000000000000000000000000000000000007bffffffffffffffffffffffffffffffffffffffffffffffffffffffff19166020820180517bffffffffffffffffffffffffffffffffffffffffffffffffffffffff83818316178352505050506127fc565b5050565b61276e828260405180602001604052806000815250612a32565b5050565b61277b82612825565b6127ba576040517f08c379a00000000000000000000000000000000000000000000000000000000081526004016127b190613af3565b60405180910390fd5b806006600084815260200190815260200160002090805190602001906127e1929190612d10565b505050565b6001816000016000828254019250508190555050565b60008151905060006a636f6e736f6c652e6c6f679050602083016000808483855afa5050505050565b60008073ffffffffffffffffffffffffffffffffffffffff166002600084815260200190815260200160002060009054906101000a900473ffffffffffffffffffffffffffffffffffffffff1673ffffffffffffffffffffffffffffffffffffffff1614159050919050565b505050565b505050565b60006128bc8473ffffffffffffffffffffffffffffffffffffffff16612a8d565b15612a25578373ffffffffffffffffffffffffffffffffffffffff1663150b7a026128e5611b5f565b8786866040518563ffffffff1660e01b8152600401612907949392919061390d565b602060405180830381600087803b15801561292157600080fd5b505af192505050801561295257506040513d601f19601f8201168201806040525081019061294f9190613106565b60015b6129d5573d8060008114612982576040519150601f19603f3d011682016040523d82523d6000602084013e612987565b606091505b506000815114156129cd576040517f08c379a00000000000000000000000000000000000000000000000000000000081526004016129c490613a13565b60405180910390fd5b805181602001fd5b63150b7a0260e01b7bffffffffffffffffffffffffffffffffffffffffffffffffffffffff1916817bffffffffffffffffffffffffffffffffffffffffffffffffffffffff191614915050612a2a565b600190505b949350505050565b612a3c8383612ab0565b612a49600084848461289b565b612a88576040517f08c379a0000000000000000000000000000000000000000000000000000000008152600401612a7f90613a13565b60405180910390fd5b505050565b6000808273ffffffffffffffffffffffffffffffffffffffff163b119050919050565b600073ffffffffffffffffffffffffffffffffffffffff168273ffffffffffffffffffffffffffffffffffffffff161415612b20576040517f08c379a0000000000000000000000000000000000000000000000000000000008152600401612b1790613b33565b60405180910390fd5b612b2981612825565b15612b69576040517f08c379a0000000000000000000000000000000000000000000000000000000008152600401612b6090613a53565b60405180910390fd5b612b7560008383612891565b6001600360008473ffffffffffffffffffffffffffffffffffffffff1673ffffffffffffffffffffffffffffffffffffffff1681526020019081526020016000206000828254612bc59190613d22565b92505081905550816002600083815260200190815260200160002060006101000a81548173ffffffffffffffffffffffffffffffffffffffff021916908373ffffffffffffffffffffffffffffffffffffffff160217905550808273ffffffffffffffffffffffffffffffffffffffff16600073ffffffffffffffffffffffffffffffffffffffff167fddf252ad1be2c89b69c2b068fc378daa952ba7f163c4a11628f55a4df523b3ef60405160405180910390a4612c8660008383612896565b5050565b828054612c9690613eff565b90600052602060002090601f016020900481019282612cb85760008555612cff565b82601f10612cd157803560ff1916838001178555612cff565b82800160010185558215612cff579182015b82811115612cfe578235825591602001919060010190612ce3565b5b509050612d0c9190612d96565b5090565b828054612d1c90613eff565b90600052602060002090601f016020900481019282612d3e5760008555612d85565b82601f10612d5757805160ff1916838001178555612d85565b82800160010185558215612d85579182015b82811115612d84578251825591602001919060010190612d69565b5b509050612d929190612d96565b5090565b5b80821115612daf576000816000905550600101612d97565b5090565b6000612dc6612dc184613c13565b613bee565b905082815260208101848484011115612dde57600080fd5b612de9848285613ebd565b509392505050565b6000612e04612dff84613c44565b613bee565b905082815260208101848484011115612e1c57600080fd5b612e27848285613ebd565b509392505050565b600081359050612e3e8161455c565b92915050565b600081359050612e5381614573565b92915050565b600081359050612e688161458a565b92915050565b600081519050612e7d8161458a565b92915050565b600082601f830112612e9457600080fd5b8135612ea4848260208601612db3565b91505092915050565b60008083601f840112612ebf57600080fd5b8235905067ffffffffffffffff811115612ed857600080fd5b602083019150836001820283011115612ef057600080fd5b9250929050565b600082601f830112612f0857600080fd5b8135612f18848260208601612df1565b91505092915050565b600081359050612f30816145a1565b92915050565b600060208284031215612f4857600080fd5b6000612f5684828501612e2f565b91505092915050565b60008060408385031215612f7257600080fd5b6000612f8085828601612e2f565b9250506020612f9185828601612e2f565b9150509250929050565b600080600060608486031215612fb057600080fd5b6000612fbe86828701612e2f565b9350506020612fcf86828701612e2f565b9250506040612fe086828701612f21565b9150509250925092565b6000806000806080858703121561300057600080fd5b600061300e87828801612e2f565b945050602061301f87828801612e2f565b935050604061303087828801612f21565b925050606085013567ffffffffffffffff81111561304d57600080fd5b61305987828801612e83565b91505092959194509250565b6000806040838503121561307857600080fd5b600061308685828601612e2f565b925050602061309785828601612e44565b9150509250929050565b600080604083850312156130b457600080fd5b60006130c285828601612e2f565b92505060206130d385828601612f21565b9150509250929050565b6000602082840312156130ef57600080fd5b60006130fd84828501612e59565b91505092915050565b60006020828403121561311857600080fd5b600061312684828501612e6e565b91505092915050565b6000806020838503121561314257600080fd5b600083013567ffffffffffffffff81111561315c57600080fd5b61316885828601612ead565b92509250509250929050565b6000806000806040858703121561318a57600080fd5b600085013567ffffffffffffffff8111156131a457600080fd5b6131b087828801612ead565b9450945050602085013567ffffffffffffffff8111156131cf57600080fd5b6131db87828801612ead565b925092505092959194509250565b6000602082840312156131fb57600080fd5b600082013567ffffffffffffffff81111561321557600080fd5b61322184828501612ef7565b91505092915050565b60006020828403121561323c57600080fd5b600061324a84828501612f21565b91505092915050565b600061325f8383613394565b905092915050565b61327081613e49565b82525050565b61327f81613e37565b82525050565b600061329082613c9a565b61329a8185613cc8565b9350836020820285016132ac85613c75565b8060005b858110156132e857848403895281516132c98582613253565b94506132d483613cbb565b925060208a019950506001810190506132b0565b50829750879550505050505092915050565b61330381613e5b565b82525050565b600061331482613ca5565b61331e8185613cd9565b935061332e818560208601613ecc565b61333781614098565b840191505092915050565b600061334e8385613d06565b935061335b838584613ebd565b61336483614098565b840190509392505050565b600061337b8385613d17565b9350613388838584613ebd565b82840190509392505050565b600061339f82613cb0565b6133a98185613cf5565b93506133b9818560208601613ecc565b6133c281614098565b840191505092915050565b60006133d882613cb0565b6133e28185613d06565b93506133f2818560208601613ecc565b6133fb81614098565b840191505092915050565b600061341182613cb0565b61341b8185613d17565b935061342b818560208601613ecc565b80840191505092915050565b6000815461344481613eff565b61344e8186613d17565b94506001821660008114613469576001811461347a576134ad565b60ff198316865281860193506134ad565b61348385613c85565b60005b838110156134a557815481890152600182019150602081019050613486565b838801955050505b50505092915050565b60006134c3603283613d06565b91506134ce826140a9565b604082019050919050565b60006134e6602583613d06565b91506134f1826140f8565b604082019050919050565b6000613509601c83613d06565b915061351482614147565b602082019050919050565b600061352c602483613d06565b915061353782614170565b604082019050919050565b600061354f601983613d06565b915061355a826141bf565b602082019050919050565b6000613572601883613d06565b915061357d826141e8565b602082019050919050565b6000613595602983613d06565b91506135a082614211565b604082019050919050565b60006135b8600183613d17565b91506135c382614260565b600182019050919050565b60006135db602e83613d06565b91506135e682614289565b604082019050919050565b60006135fe600283613d17565b9150613609826142d8565b600282019050919050565b6000613621603e83613d06565b915061362c82614301565b604082019050919050565b6000613644602083613d06565b915061364f82614350565b602082019050919050565b6000613667605c83613d17565b915061367282614379565b605c82019050919050565b600061368a600a83613d17565b9150613695826143ee565b600a82019050919050565b60006136ad601883613d06565b91506136b882614417565b602082019050919050565b60006136d0602183613d06565b91506136db82614440565b604082019050919050565b60006136f3601483613d06565b91506136fe8261448f565b602082019050919050565b6000613716601d83613d17565b9150613721826144b8565b601d82019050919050565b6000613739600c83613d17565b9150613744826144e1565b600c82019050919050565b600061375c600083613cea565b91506137678261450a565b600082019050919050565b600061377f602e83613d06565b915061378a8261450d565b604082019050919050565b61379e81613eb3565b82525050565b60006137b182848661336f565b91508190509392505050565b60006137ca82858761336f565b91506137d5826135ab565b91506137e18284613437565b9150819050949350505050565b60006137fa8285613406565b91506138068284613406565b91508190509392505050565b600061381e8286613437565b915061382a8285613406565b91506138368284613437565b9150819050949350505050565b600061384e8261367d565b915061385a8286613406565b91506138658261365a565b91506138718285613406565b915061387c8261372c565b91506138888284613406565b9150613893826135f1565b9150819050949350505050565b60006138ab82613709565b91506138b78284613406565b915081905092915050565b60006138cd8261374f565b9150819050919050565b60006020820190506138ec6000830184613276565b92915050565b60006020820190506139076000830184613267565b92915050565b60006080820190506139226000830187613276565b61392f6020830186613276565b61393c6040830185613795565b818103606083015261394e8184613309565b905095945050505050565b600060208201905081810360008301526139738184613285565b905092915050565b600060208201905061399060008301846132fa565b92915050565b600060208201905081810360008301526139b1818486613342565b90509392505050565b600060208201905081810360008301526139d481846133cd565b905092915050565b600060408201905081810360008301526139f681856133cd565b90508181036020830152613a0a81846133cd565b90509392505050565b60006020820190508181036000830152613a2c816134b6565b9050919050565b60006020820190508181036000830152613a4c816134d9565b9050919050565b60006020820190508181036000830152613a6c816134fc565b9050919050565b60006020820190508181036000830152613a8c8161351f565b9050919050565b60006020820190508181036000830152613aac81613542565b9050919050565b60006020820190508181036000830152613acc81613565565b9050919050565b60006020820190508181036000830152613aec81613588565b9050919050565b60006020820190508181036000830152613b0c816135ce565b9050919050565b60006020820190508181036000830152613b2c81613614565b9050919050565b60006020820190508181036000830152613b4c81613637565b9050919050565b60006020820190508181036000830152613b6c816136a0565b9050919050565b60006020820190508181036000830152613b8c816136c3565b9050919050565b60006020820190508181036000830152613bac816136e6565b9050919050565b60006020820190508181036000830152613bcc81613772565b9050919050565b6000602082019050613be86000830184613795565b92915050565b6000613bf8613c09565b9050613c048282613f31565b919050565b6000604051905090565b600067ffffffffffffffff821115613c2e57613c2d614069565b5b613c3782614098565b9050602081019050919050565b600067ffffffffffffffff821115613c5f57613c5e614069565b5b613c6882614098565b9050602081019050919050565b6000819050602082019050919050565b60008190508160005260206000209050919050565b600081519050919050565b600081519050919050565b600081519050919050565b6000602082019050919050565b600082825260208201905092915050565b600082825260208201905092915050565b600081905092915050565b600082825260208201905092915050565b600082825260208201905092915050565b600081905092915050565b6000613d2d82613eb3565b9150613d3883613eb3565b9250827fffffffffffffffffffffffffffffffffffffffffffffffffffffffffffffffff03821115613d6d57613d6c613fdc565b5b828201905092915050565b6000613d8382613eb3565b9150613d8e83613eb3565b925082613d9e57613d9d61400b565b5b828204905092915050565b6000613db482613eb3565b9150613dbf83613eb3565b9250817fffffffffffffffffffffffffffffffffffffffffffffffffffffffffffffffff0483118215151615613df857613df7613fdc565b5b828202905092915050565b6000613e0e82613eb3565b9150613e1983613eb3565b925082821015613e2c57613e2b613fdc565b5b828203905092915050565b6000613e4282613e93565b9050919050565b6000613e5482613e93565b9050919050565b60008115159050919050565b60007fffffffff0000000000000000000000000000000000000000000000000000000082169050919050565b600073ffffffffffffffffffffffffffffffffffffffff82169050919050565b6000819050919050565b82818337600083830152505050565b60005b83811015613eea578082015181840152602081019050613ecf565b83811115613ef9576000848401525b50505050565b60006002820490506001821680613f1757607f821691505b60208210811415613f2b57613f2a61403a565b5b50919050565b613f3a82614098565b810181811067ffffffffffffffff82111715613f5957613f58614069565b5b80604052505050565b6000613f6d82613eb3565b91507fffffffffffffffffffffffffffffffffffffffffffffffffffffffffffffffff821415613fa057613f9f613fdc565b5b600182019050919050565b6000613fb682613eb3565b9150613fc183613eb3565b925082613fd157613fd061400b565b5b828206905092915050565b7f4e487b7100000000000000000000000000000000000000000000000000000000600052601160045260246000fd5b7f4e487b7100000000000000000000000000000000000000000000000000000000600052601260045260246000fd5b7f4e487b7100000000000000000000000000000000000000000000000000000000600052602260045260246000fd5b7f4e487b7100000000000000000000000000000000000000000000000000000000600052604160045260246000fd5b6000601f19601f8301169050919050565b7f4552433732313a207472616e7366657220746f206e6f6e20455243373231526560008201527f63656976657220696d706c656d656e7465720000000000000000000000000000602082015250565b7f4552433732313a207472616e736665722066726f6d20696e636f72726563742060008201527f6f776e6572000000000000000000000000000000000000000000000000000000602082015250565b7f4552433732313a20746f6b656e20616c7265616479206d696e74656400000000600082015250565b7f4552433732313a207472616e7366657220746f20746865207a65726f2061646460008201527f7265737300000000000000000000000000000000000000000000000000000000602082015250565b7f4552433732313a20617070726f766520746f2063616c6c657200000000000000600082015250565b7f4661696c656420746f207769746864726177204d617469630000000000000000600082015250565b7f4552433732313a2061646472657373207a65726f206973206e6f74206120766160008201527f6c6964206f776e65720000000000000000000000000000000000000000000000602082015250565b7f2e00000000000000000000000000000000000000000000000000000000000000600082015250565b7f45524337323155524953746f726167653a2055524920736574206f66206e6f6e60008201527f6578697374656e7420746f6b656e000000000000000000000000000000000000602082015250565b7f227d000000000000000000000000000000000000000000000000000000000000600082015250565b7f4552433732313a20617070726f76652063616c6c6572206973206e6f7420746f60008201527f6b656e206f776e6572206e6f7220617070726f76656420666f7220616c6c0000602082015250565b7f4552433732313a206d696e7420746f20746865207a65726f2061646472657373600082015250565b7f222c20226465736372697074696f6e223a20224120646f6d61696e206f6e207460008201527f686520416c706861206e616d652073657276696365222c2022696d616765223a60208201527f2022646174613a696d6167652f7376672b786d6c3b6261736536342c00000000604082015250565b7f7b226e616d65223a202200000000000000000000000000000000000000000000600082015250565b7f4552433732313a20696e76616c696420746f6b656e2049440000000000000000600082015250565b7f4552433732313a20617070726f76616c20746f2063757272656e74206f776e6560008201527f7200000000000000000000000000000000000000000000000000000000000000602082015250565b7f4e6f7420656e6f756768204d6174696320706964000000000000000000000000600082015250565b7f646174613a6170706c69636174696f6e2f6a736f6e3b6261736536342c000000600082015250565b7f222c226c656e677468223a220000000000000000000000000000000000000000600082015250565b50565b7f4552433732313a2063616c6c6572206973206e6f7420746f6b656e206f776e6560008201527f72206e6f7220617070726f766564000000000000000000000000000000000000602082015250565b61456581613e37565b811461457057600080fd5b50565b61457c81613e5b565b811461458757600080fd5b50565b61459381613e67565b811461459e57600080fd5b50565b6145aa81613eb3565b81146145b557600080fd5b5056fe0a2d2d2d2d2d2d2d2d2d2d2d2d2d2d2d2d2d2d2d2d2d2d2d2d2d2d2d2d2d2d2d2d2d2d2d2d2d2d2d2d2d2d2d2d2d2d2d2d2d2d2d2d2d2d2d2d2d2d2d2d2d2d2d2d2d2d2d2d2d2d2d2d2d2d2d2d2d2d2d2d2d2d2d2d2d2d2d2d2d2d2d2d2d2d2d2d2d2d2d2d2d2d2d2d2d2d2d2d2d2d2d2d0a4142434445464748494a4b4c4d4e4f505152535455565758595a6162636465666768696a6b6c6d6e6f707172737475767778797a303132333435363738392b2fa2646970667358221220494fd5ff124853c4afb339150488f05cdae2d36423836b0a131dca7784ed213c64736f6c634300080400333c73766720786d6c6e733d22687474703a2f2f7777772e77332e6f72672f323030302f737667222077696474683d2232373022206865696768743d22323730222066696c6c3d226e6f6e65223e3c706174682066696c6c3d2275726c282342292220643d224d302030683237307632373048307a222f3e3c646566733e3c66696c7465722069643d22412220636f6c6f722d696e746572706f6c6174696f6e2d66696c746572733d2273524742222066696c746572556e6974733d227573657253706163654f6e55736522206865696768743d22323730222077696474683d22323730223e3c666544726f70536861646f772064783d2230222064793d22312220737464446576696174696f6e3d22322220666c6f6f642d6f7061636974793d222e323235222077696474683d223230302522206865696768743d2232303025222f3e3c2f66696c7465723e3c2f646566733e3c7061746820643d224d37322e3836332034322e393439632d2e3636382d2e3338372d312e3432362d2e35392d322e3139372d2e3539732d312e3532392e3230342d322e3139372e35396c2d31302e30383120362e3033322d362e383520332e3933342d31302e30383120362e303332632d2e3636382e3338372d312e3432362e35392d322e3139372e3539732d312e3532392d2e3230342d322e3139372d2e35396c2d382e3031332d342e37323161342e353220342e35322030203020312d312e3538392d312e363136632d2e3338342d2e3636352d2e3539342d312e3431382d2e3630382d322e313837762d392e3331632d2e3031332d2e3737352e3138352d312e3533382e3537322d322e32303861342e323520342e323520302030203120312e3632352d312e3539356c372e3838342d342e3539632e3636382d2e33383720312e3432362d2e353920322e3139372d2e353973312e3532392e32303420322e3139372e35396c372e38383420342e353961342e353220342e353220302030203120312e35383920312e363136632e3338342e3636352e35393420312e3431382e36303820322e31383776362e3033326c362e38352d342e303635762d362e303332632e3031332d2e3737352d2e3138352d312e3533382d2e3537322d322e32303861342e323520342e32352030203020302d312e3632352d312e3539354c34312e3435362032342e3539632d2e3636382d2e3338372d312e3432362d2e35392d322e3139372d2e3539732d312e3532392e3230342d322e3139372e35396c2d31342e38363420382e36353561342e323520342e32352030203020302d312e36323520312e353935632d2e3338372e36372d2e35383520312e3433342d2e35373220322e3230387631372e343431632d2e3031332e3737352e31383520312e3533382e35373220322e32303861342e323520342e323520302030203020312e36323520312e3539356c31342e38363420382e363535632e3636382e33383720312e3432362e353920322e3139372e353973312e3532392d2e32303420322e3139372d2e35396c31302e3038312d352e39303120362e38352d342e3036352031302e3038312d352e393031632e3636382d2e33383720312e3432362d2e353920322e3139372d2e353973312e3532392e32303420322e3139372e35396c372e38383420342e353961342e353220342e353220302030203120312e35383920312e363136632e3338342e3636352e35393420312e3431382e36303820322e31383776392e333131632e3031332e3737352d2e31383520312e3533382d2e35373220322e32303861342e323520342e32352030203020312d312e36323520312e3539356c2d372e38383420342e373231632d2e3636382e3338372d312e3432362e35392d322e3139372e3539732d312e3532392d2e3230342d322e3139372d2e35396c2d372e3838342d342e353961342e353220342e35322030203020312d312e3538392d312e363136632d2e3338352d2e3636352d2e3539342d312e3431382d2e3630382d322e313837762d362e3033326c2d362e383520342e30363576362e303332632d2e3031332e3737352e31383520312e3533382e35373220322e32303861342e323520342e323520302030203020312e36323520312e3539356c31342e38363420382e363535632e3636382e33383720312e3432362e353920322e3139372e353973312e3532392d2e32303420322e3139372d2e35396c31342e3836342d382e363535632e3635372d2e33393420312e3230342d2e393520312e3538392d312e363136732e3539342d312e3431382e3630392d322e3138375635352e353338632e3031332d2e3737352d2e3138352d312e3533382d2e3537322d322e32303861342e323520342e32352030203020302d312e3632352d312e3539356c2d31342e3939332d382e3738367a222066696c6c3d2223666666222f3e3c646566733e3c6c696e6561724772616469656e742069643d2242222078313d2230222079313d2230222078323d22323730222079323d2232373022206772616469656e74556e6974733d227573657253706163654f6e557365223e3c73746f702073746f702d636f6c6f723d2223636235656565222f3e3c73746f70206f66667365743d2231222073746f702d636f6c6f723d2223306364376534222073746f702d6f7061636974793d222e3939222f3e3c2f6c696e6561724772616469656e743e3c2f646566733e3c7465787420783d2233322e352220793d223233312220666f6e742d73697a653d223237222066696c6c3d2223666666222066696c7465723d2275726c282341292220666f6e742d66616d696c793d22506c7573204a616b617274612053616e732c44656a6156752053616e732c4e6f746f20436f6c6f7220456d6f6a692c4170706c6520436f6c6f7220456d6f6a692c73616e732d73657269662220666f6e742d7765696768743d22626f6c64223e",
  "linkReferences": {},
  "deployedLinkReferences": {}
}