{
  "_format": "hh-sol-artifact-1",
  "contractName": "Domains",
  "sourceName": "contracts/Domains.sol",
  "abi": [
    {
      "inputs": [
        {
          "internalType": "string",
          "name": "_tld",
          "type": "string"
        }
      ],
      "stateMutability": "payable",
      "type": "constructor"
    },
    {
      "anonymous": false,
      "inputs": [
        {
          "indexed": true,
          "internalType": "address",
          "name": "owner",
          "type": "address"
        },
        {
          "indexed": true,
          "internalType": "address",
          "name": "approved",
          "type": "address"
        },
        {
          "indexed": true,
          "internalType": "uint256",
          "name": "tokenId",
          "type": "uint256"
        }
      ],
      "name": "Approval",
      "type": "event"
    },
    {
      "anonymous": false,
      "inputs": [
        {
          "indexed": true,
          "internalType": "address",
          "name": "owner",
          "type": "address"
        },
        {
          "indexed": true,
          "internalType": "address",
          "name": "operator",
          "type": "address"
        },
        {
          "indexed": false,
          "internalType": "bool",
          "name": "approved",
          "type": "bool"
        }
      ],
      "name": "ApprovalForAll",
      "type": "event"
    },
    {
      "anonymous": false,
      "inputs": [
        {
          "indexed": true,
          "internalType": "address",
          "name": "from",
          "type": "address"
        },
        {
          "indexed": true,
          "internalType": "address",
          "name": "to",
          "type": "address"
        },
        {
          "indexed": true,
          "internalType": "uint256",
          "name": "tokenId",
          "type": "uint256"
        }
      ],
      "name": "Transfer",
      "type": "event"
    },
    {
      "inputs": [
        {
          "internalType": "address",
          "name": "to",
          "type": "address"
        },
        {
          "internalType": "uint256",
          "name": "tokenId",
          "type": "uint256"
        }
      ],
      "name": "approve",
      "outputs": [],
      "stateMutability": "nonpayable",
      "type": "function"
    },
    {
      "inputs": [
        {
          "internalType": "address",
          "name": "owner",
          "type": "address"
        }
      ],
      "name": "balanceOf",
      "outputs": [
        {
          "internalType": "uint256",
          "name": "",
          "type": "uint256"
        }
      ],
      "stateMutability": "view",
      "type": "function"
    },
    {
      "inputs": [
        {
          "internalType": "string",
          "name": "",
          "type": "string"
        }
      ],
      "name": "domains",
      "outputs": [
        {
          "internalType": "address",
          "name": "",
          "type": "address"
        }
      ],
      "stateMutability": "view",
      "type": "function"
    },
    {
      "inputs": [
        {
          "internalType": "string",
          "name": "name",
          "type": "string"
        }
      ],
      "name": "getAddress",
      "outputs": [
        {
          "internalType": "address",
          "name": "",
          "type": "address"
        }
      ],
      "stateMutability": "view",
      "type": "function"
    },
    {
      "inputs": [
        {
          "internalType": "uint256",
          "name": "tokenId",
          "type": "uint256"
        }
      ],
      "name": "getApproved",
      "outputs": [
        {
          "internalType": "address",
          "name": "",
          "type": "address"
        }
      ],
      "stateMutability": "view",
      "type": "function"
    },
    {
      "inputs": [
        {
          "internalType": "string",
          "name": "name",
          "type": "string"
        }
      ],
      "name": "getRecord",
      "outputs": [
        {
          "internalType": "string",
          "name": "",
          "type": "string"
        }
      ],
      "stateMutability": "view",
      "type": "function"
    },
    {
      "inputs": [
        {
          "internalType": "address",
          "name": "owner",
          "type": "address"
        },
        {
          "internalType": "address",
          "name": "operator",
          "type": "address"
        }
      ],
      "name": "isApprovedForAll",
      "outputs": [
        {
          "internalType": "bool",
          "name": "",
          "type": "bool"
        }
      ],
      "stateMutability": "view",
      "type": "function"
    },
    {
      "inputs": [],
      "name": "name",
      "outputs": [
        {
          "internalType": "string",
          "name": "",
          "type": "string"
        }
      ],
      "stateMutability": "view",
      "type": "function"
    },
    {
      "inputs": [
        {
          "internalType": "uint256",
          "name": "tokenId",
          "type": "uint256"
        }
      ],
      "name": "ownerOf",
      "outputs": [
        {
          "internalType": "address",
          "name": "",
          "type": "address"
        }
      ],
      "stateMutability": "view",
      "type": "function"
    },
    {
      "inputs": [
        {
          "internalType": "string",
          "name": "name",
          "type": "string"
        }
      ],
      "name": "price",
      "outputs": [
        {
          "internalType": "uint256",
          "name": "",
          "type": "uint256"
        }
      ],
      "stateMutability": "pure",
      "type": "function"
    },
    {
      "inputs": [
        {
          "internalType": "string",
          "name": "",
          "type": "string"
        }
      ],
      "name": "records",
      "outputs": [
        {
          "internalType": "string",
          "name": "",
          "type": "string"
        }
      ],
      "stateMutability": "view",
      "type": "function"
    },
    {
      "inputs": [
        {
          "internalType": "string",
          "name": "name",
          "type": "string"
        }
      ],
      "name": "register",
      "outputs": [],
      "stateMutability": "payable",
      "type": "function"
    },
    {
      "inputs": [
        {
          "internalType": "address",
          "name": "from",
          "type": "address"
        },
        {
          "internalType": "address",
          "name": "to",
          "type": "address"
        },
        {
          "internalType": "uint256",
          "name": "tokenId",
          "type": "uint256"
        }
      ],
      "name": "safeTransferFrom",
      "outputs": [],
      "stateMutability": "nonpayable",
      "type": "function"
    },
    {
      "inputs": [
        {
          "internalType": "address",
          "name": "from",
          "type": "address"
        },
        {
          "internalType": "address",
          "name": "to",
          "type": "address"
        },
        {
          "internalType": "uint256",
          "name": "tokenId",
          "type": "uint256"
        },
        {
          "internalType": "bytes",
          "name": "data",
          "type": "bytes"
        }
      ],
      "name": "safeTransferFrom",
      "outputs": [],
      "stateMutability": "nonpayable",
      "type": "function"
    },
    {
      "inputs": [
        {
          "internalType": "address",
          "name": "operator",
          "type": "address"
        },
        {
          "internalType": "bool",
          "name": "approved",
          "type": "bool"
        }
      ],
      "name": "setApprovalForAll",
      "outputs": [],
      "stateMutability": "nonpayable",
      "type": "function"
    },
    {
      "inputs": [
        {
          "internalType": "string",
          "name": "name",
          "type": "string"
        },
        {
          "internalType": "string",
          "name": "record",
          "type": "string"
        }
      ],
      "name": "setRecord",
      "outputs": [],
      "stateMutability": "nonpayable",
      "type": "function"
    },
    {
      "inputs": [
        {
          "internalType": "bytes4",
          "name": "interfaceId",
          "type": "bytes4"
        }
      ],
      "name": "supportsInterface",
      "outputs": [
        {
          "internalType": "bool",
          "name": "",
          "type": "bool"
        }
      ],
      "stateMutability": "view",
      "type": "function"
    },
    {
      "inputs": [],
      "name": "symbol",
      "outputs": [
        {
          "internalType": "string",
          "name": "",
          "type": "string"
        }
      ],
      "stateMutability": "view",
      "type": "function"
    },
    {
      "inputs": [],
      "name": "tld",
      "outputs": [
        {
          "internalType": "string",
          "name": "",
          "type": "string"
        }
      ],
      "stateMutability": "view",
      "type": "function"
    },
    {
      "inputs": [
        {
          "internalType": "uint256",
          "name": "tokenId",
          "type": "uint256"
        }
      ],
      "name": "tokenURI",
      "outputs": [
        {
          "internalType": "string",
          "name": "",
          "type": "string"
        }
      ],
      "stateMutability": "view",
      "type": "function"
    },
    {
      "inputs": [
        {
          "internalType": "address",
          "name": "from",
          "type": "address"
        },
        {
          "internalType": "address",
          "name": "to",
          "type": "address"
        },
        {
          "internalType": "uint256",
          "name": "tokenId",
          "type": "uint256"
        }
      ],
      "name": "transferFrom",
      "outputs": [],
      "stateMutability": "nonpayable",
      "type": "function"
    }
  ],
  "bytecode": "0x6080604052604051806108a0016040528061086b8152602001620043a661086b9139600990805190602001906200003892919062000283565b506040518060400160405280600d81526020017f3c2f746578743e3c2f7376673e00000000000000000000000000000000000000815250600a90805190602001906200008692919062000283565b5060405162004c1138038062004c118339818101604052810190620000ac9190620003a5565b6040518060400160405280601281526020017f416c706168204e616d65205365727669636500000000000000000000000000008152506040518060400160405280600381526020017f414e53000000000000000000000000000000000000000000000000000000000081525081600090805190602001906200013092919062000283565b5080600190805190602001906200014992919062000283565b50505080600890805190602001906200016492919062000283565b50620001b06040518060400160405280601481526020017f446f6d61696e7320696e697469616c697a656421000000000000000000000000815250620001b760201b620013991760201c565b50620005db565b6200025781604051602401620001ce91906200042b565b6040516020818303038152906040527f41304fac000000000000000000000000000000000000000000000000000000007bffffffffffffffffffffffffffffffffffffffffffffffffffffffff19166020820180517bffffffffffffffffffffffffffffffffffffffffffffffffffffffff83818316178352505050506200025a60201b60201c565b50565b60008151905060006a636f6e736f6c652e6c6f679050602083016000808483855afa5050505050565b828054620002919062000500565b90600052602060002090601f016020900481019282620002b5576000855562000301565b82601f10620002d057805160ff191683800117855562000301565b8280016001018555821562000301579182015b8281111562000300578251825591602001919060010190620002e3565b5b50905062000310919062000314565b5090565b5b808211156200032f57600081600090555060010162000315565b5090565b60006200034a620003448462000478565b6200044f565b9050828152602081018484840111156200036357600080fd5b62000370848285620004ca565b509392505050565b600082601f8301126200038a57600080fd5b81516200039c84826020860162000333565b91505092915050565b600060208284031215620003b857600080fd5b600082015167ffffffffffffffff811115620003d357600080fd5b620003e18482850162000378565b91505092915050565b6000620003f782620004ae565b620004038185620004b9565b935062000415818560208601620004ca565b6200042081620005ca565b840191505092915050565b60006020820190508181036000830152620004478184620003ea565b905092915050565b60006200045b6200046e565b905062000469828262000536565b919050565b6000604051905090565b600067ffffffffffffffff8211156200049657620004956200059b565b5b620004a182620005ca565b9050602081019050919050565b600081519050919050565b600082825260208201905092915050565b60005b83811015620004ea578082015181840152602081019050620004cd565b83811115620004fa576000848401525b50505050565b600060028204905060018216806200051957607f821691505b6020821081141562000530576200052f6200056c565b5b50919050565b6200054182620005ca565b810181811067ffffffffffffffff821117156200056357620005626200059b565b5b80604052505050565b7f4e487b7100000000000000000000000000000000000000000000000000000000600052602260045260246000fd5b7f4e487b7100000000000000000000000000000000000000000000000000000000600052604160045260246000fd5b6000601f19601f8301169050919050565b613dbb80620005eb6000396000f3fe60806040526004361061012a5760003560e01c80636352211e116100ab578063bf40fac11161006f578063bf40fac114610428578063c1880a9814610465578063c87b56dd1461048e578063e985e9c5146104cb578063f2c298be14610508578063fe2c6198146105245761012a565b80636352211e1461033157806370a082311461036e57806395d89b41146103ab578063a22cb465146103d6578063b88d4fde146103ff5761012a565b806323b872dd116100f257806323b872dd1461023a57806326449235146102635780632d551432146102a057806342842e0e146102cb578063541e771d146102f45761012a565b806301ffc9a71461012f57806306fdde031461016c578063081812fc14610197578063095ea7b3146101d457806311dd8845146101fd575b600080fd5b34801561013b57600080fd5b5061015660048036038101906101519190612a65565b610561565b604051610163919061316d565b60405180910390f35b34801561017857600080fd5b50610181610643565b60405161018e9190613188565b60405180910390f35b3480156101a357600080fd5b506101be60048036038101906101b99190612bb2565b6106d5565b6040516101cb9190613106565b60405180910390f35b3480156101e057600080fd5b506101fb60048036038101906101f69190612a29565b61071b565b005b34801561020957600080fd5b50610224600480360381019061021f9190612ab7565b610833565b6040516102319190613188565b60405180910390f35b34801561024657600080fd5b50610261600480360381019061025c9190612923565b6108e6565b005b34801561026f57600080fd5b5061028a60048036038101906102859190612b71565b610946565b6040516102979190613106565b60405180910390f35b3480156102ac57600080fd5b506102b561098f565b6040516102c29190613188565b60405180910390f35b3480156102d757600080fd5b506102f260048036038101906102ed9190612923565b610a1d565b005b34801561030057600080fd5b5061031b60048036038101906103169190612b71565b610a3d565b6040516103289190613188565b60405180910390f35b34801561033d57600080fd5b5061035860048036038101906103539190612bb2565b610af3565b6040516103659190613106565b60405180910390f35b34801561037a57600080fd5b50610395600480360381019061039091906128be565b610ba5565b6040516103a29190613381565b60405180910390f35b3480156103b757600080fd5b506103c0610c5d565b6040516103cd9190613188565b60405180910390f35b3480156103e257600080fd5b506103fd60048036038101906103f891906129ed565b610cef565b005b34801561040b57600080fd5b5061042660048036038101906104219190612972565b610d05565b005b34801561043457600080fd5b5061044f600480360381019061044a9190612ab7565b610d67565b60405161045c9190613106565b60405180910390f35b34801561047157600080fd5b5061048c60048036038101906104879190612afc565b610db2565b005b34801561049a57600080fd5b506104b560048036038101906104b09190612bb2565b610e60565b6040516104c29190613188565b60405180910390f35b3480156104d757600080fd5b506104f260048036038101906104ed91906128e7565b610f73565b6040516104ff919061316d565b60405180910390f35b610522600480360381019061051d9190612ab7565b611007565b005b34801561053057600080fd5b5061054b60048036038101906105469190612ab7565b6112f6565b6040516105589190613381565b60405180910390f35b60007f80ac58cd000000000000000000000000000000000000000000000000000000007bffffffffffffffffffffffffffffffffffffffffffffffffffffffff1916827bffffffffffffffffffffffffffffffffffffffffffffffffffffffff1916148061062c57507f5b5e139f000000000000000000000000000000000000000000000000000000007bffffffffffffffffffffffffffffffffffffffffffffffffffffffff1916827bffffffffffffffffffffffffffffffffffffffffffffffffffffffff1916145b8061063c575061063b82611432565b5b9050919050565b60606000805461065290613646565b80601f016020809104026020016040519081016040528092919081815260200182805461067e90613646565b80156106cb5780601f106106a0576101008083540402835291602001916106cb565b820191906000526020600020905b8154815290600101906020018083116106ae57829003601f168201915b5050505050905090565b60006106e08261149c565b6004600083815260200190815260200160002060009054906101000a900473ffffffffffffffffffffffffffffffffffffffff169050919050565b600061072682610af3565b90508073ffffffffffffffffffffffffffffffffffffffff168373ffffffffffffffffffffffffffffffffffffffff161415610797576040517f08c379a000000000000000000000000000000000000000000000000000000000815260040161078e90613321565b60405180910390fd5b8073ffffffffffffffffffffffffffffffffffffffff166107b66114e7565b73ffffffffffffffffffffffffffffffffffffffff1614806107e557506107e4816107df6114e7565b610f73565b5b610824576040517f08c379a000000000000000000000000000000000000000000000000000000000815260040161081b906132c1565b60405180910390fd5b61082e83836114ef565b505050565b6060600c8383604051610847929190612fe8565b9081526020016040518091039020805461086090613646565b80601f016020809104026020016040519081016040528092919081815260200182805461088c90613646565b80156108d95780601f106108ae576101008083540402835291602001916108d9565b820191906000526020600020905b8154815290600101906020018083116108bc57829003601f168201915b5050505050905092915050565b6108f76108f16114e7565b826115a8565b610936576040517f08c379a000000000000000000000000000000000000000000000000000000000815260040161092d90613361565b60405180910390fd5b61094183838361163d565b505050565b600b818051602081018201805184825260208301602085012081835280955050505050506000915054906101000a900473ffffffffffffffffffffffffffffffffffffffff1681565b6008805461099c90613646565b80601f01602080910402602001604051908101604052809291908181526020018280546109c890613646565b8015610a155780601f106109ea57610100808354040283529160200191610a15565b820191906000526020600020905b8154815290600101906020018083116109f857829003601f168201915b505050505081565b610a3883838360405180602001604052806000815250610d05565b505050565b600c818051602081018201805184825260208301602085012081835280955050505050506000915090508054610a7290613646565b80601f0160208091040260200160405190810160405280929190818152602001828054610a9e90613646565b8015610aeb5780601f10610ac057610100808354040283529160200191610aeb565b820191906000526020600020905b815481529060010190602001808311610ace57829003601f168201915b505050505081565b6000806002600084815260200190815260200160002060009054906101000a900473ffffffffffffffffffffffffffffffffffffffff169050600073ffffffffffffffffffffffffffffffffffffffff168173ffffffffffffffffffffffffffffffffffffffff161415610b9c576040517f08c379a0000000000000000000000000000000000000000000000000000000008152600401610b9390613301565b60405180910390fd5b80915050919050565b60008073ffffffffffffffffffffffffffffffffffffffff168273ffffffffffffffffffffffffffffffffffffffff161415610c16576040517f08c379a0000000000000000000000000000000000000000000000000000000008152600401610c0d90613281565b60405180910390fd5b600360008373ffffffffffffffffffffffffffffffffffffffff1673ffffffffffffffffffffffffffffffffffffffff168152602001908152602001600020549050919050565b606060018054610c6c90613646565b80601f0160208091040260200160405190810160405280929190818152602001828054610c9890613646565b8015610ce55780601f10610cba57610100808354040283529160200191610ce5565b820191906000526020600020905b815481529060010190602001808311610cc857829003601f168201915b5050505050905090565b610d01610cfa6114e7565b83836118a4565b5050565b610d16610d106114e7565b836115a8565b610d55576040517f08c379a0000000000000000000000000000000000000000000000000000000008152600401610d4c90613361565b60405180910390fd5b610d6184848484611a11565b50505050565b6000600b8383604051610d7b929190612fe8565b908152602001604051809103902060009054906101000a900473ffffffffffffffffffffffffffffffffffffffff16905092915050565b3373ffffffffffffffffffffffffffffffffffffffff16600b8585604051610ddb929190612fe8565b908152602001604051809103902060009054906101000a900473ffffffffffffffffffffffffffffffffffffffff1673ffffffffffffffffffffffffffffffffffffffff1614610e2a57600080fd5b8181600c8686604051610e3e929190612fe8565b90815260200160405180910390209190610e59929190612612565b5050505050565b6060610e6b8261149c565b6000600660008481526020019081526020016000208054610e8b90613646565b80601f0160208091040260200160405190810160405280929190818152602001828054610eb790613646565b8015610f045780601f10610ed957610100808354040283529160200191610f04565b820191906000526020600020905b815481529060010190602001808311610ee757829003601f168201915b505050505090506000610f15611a6d565b9050600081511415610f2b578192505050610f6e565b600082511115610f60578082604051602001610f48929190613032565b60405160208183030381529060405292505050610f6e565b610f6984611a84565b925050505b919050565b6000600560008473ffffffffffffffffffffffffffffffffffffffff1673ffffffffffffffffffffffffffffffffffffffff16815260200190815260200160002060008373ffffffffffffffffffffffffffffffffffffffff1673ffffffffffffffffffffffffffffffffffffffff16815260200190815260200160002060009054906101000a900460ff16905092915050565b600073ffffffffffffffffffffffffffffffffffffffff16600b8383604051611031929190612fe8565b908152602001604051809103902060009054906101000a900473ffffffffffffffffffffffffffffffffffffffff1673ffffffffffffffffffffffffffffffffffffffff161461108057600080fd5b600061108c83836112f6565b9050803410156110d1576040517f08c379a00000000000000000000000000000000000000000000000000000000081526004016110c890613341565b60405180910390fd5b6000838360086040516020016110e993929190613001565b60405160208183030381529060405290506000600982600a60405160200161111393929190613056565b604051602081830303815290604052905060006111306007611aec565b9050600061118187878080601f016020809104026020016040519081016040528093929190818152602001838380828437600081840152601f19601f82011690508083019250505050505050611afa565b9050600061118e82611cd5565b905060006111c68661119f87611e82565b846040516020016111b293929190613087565b604051602081830303815290604052611e82565b90506000816040516020016111db91906130e4565b604051602081830303815290604052905061120d604051806060016040528060398152602001613cd460399139611399565b61124c6040518060400160405280600e81526020017f46696e616c20746f6b656e55524900000000000000000000000000000000000081525082612040565b61126d604051806060016040528060398152602001613d0d60399139611399565b61127733866120dc565b61128185826120fa565b33600b8b8b604051611294929190612fe8565b908152602001604051809103902060006101000a81548173ffffffffffffffffffffffffffffffffffffffff021916908373ffffffffffffffffffffffffffffffffffffffff1602179055506112ea600761216e565b50505050505050505050565b60008061134684848080601f016020809104026020016040519081016040528093929190818152602001838380828437600081840152601f19601f82011690508083019250505050505050611afa565b90506000811161135557600080fd5b600381141561136e576611c37937e08000915050611393565b600481141561138757660aa87bee538000915050611393565b66038d7ea4c680009150505b92915050565b61142f816040516024016113ad9190613188565b6040516020818303038152906040527f41304fac000000000000000000000000000000000000000000000000000000007bffffffffffffffffffffffffffffffffffffffffffffffffffffffff19166020820180517bffffffffffffffffffffffffffffffffffffffffffffffffffffffff8381831617835250505050612184565b50565b60007f01ffc9a7000000000000000000000000000000000000000000000000000000007bffffffffffffffffffffffffffffffffffffffffffffffffffffffff1916827bffffffffffffffffffffffffffffffffffffffffffffffffffffffff1916149050919050565b6114a5816121ad565b6114e4576040517f08c379a00000000000000000000000000000000000000000000000000000000081526004016114db90613301565b60405180910390fd5b50565b600033905090565b816004600083815260200190815260200160002060006101000a81548173ffffffffffffffffffffffffffffffffffffffff021916908373ffffffffffffffffffffffffffffffffffffffff160217905550808273ffffffffffffffffffffffffffffffffffffffff1661156283610af3565b73ffffffffffffffffffffffffffffffffffffffff167f8c5be1e5ebec7d5bd14f71427d1e84f3dd0314c0f7b2291e5b200ac8c7c3b92560405160405180910390a45050565b6000806115b483610af3565b90508073ffffffffffffffffffffffffffffffffffffffff168473ffffffffffffffffffffffffffffffffffffffff1614806115f657506115f58185610f73565b5b8061163457508373ffffffffffffffffffffffffffffffffffffffff1661161c846106d5565b73ffffffffffffffffffffffffffffffffffffffff16145b91505092915050565b8273ffffffffffffffffffffffffffffffffffffffff1661165d82610af3565b73ffffffffffffffffffffffffffffffffffffffff16146116b3576040517f08c379a00000000000000000000000000000000000000000000000000000000081526004016116aa90613201565b60405180910390fd5b600073ffffffffffffffffffffffffffffffffffffffff168273ffffffffffffffffffffffffffffffffffffffff161415611723576040517f08c379a000000000000000000000000000000000000000000000000000000000815260040161171a90613241565b60405180910390fd5b61172e838383612219565b6117396000826114ef565b6001600360008573ffffffffffffffffffffffffffffffffffffffff1673ffffffffffffffffffffffffffffffffffffffff1681526020019081526020016000206000828254611789919061355c565b925050819055506001600360008473ffffffffffffffffffffffffffffffffffffffff1673ffffffffffffffffffffffffffffffffffffffff16815260200190815260200160002060008282546117e0919061347b565b92505081905550816002600083815260200190815260200160002060006101000a81548173ffffffffffffffffffffffffffffffffffffffff021916908373ffffffffffffffffffffffffffffffffffffffff160217905550808273ffffffffffffffffffffffffffffffffffffffff168473ffffffffffffffffffffffffffffffffffffffff167fddf252ad1be2c89b69c2b068fc378daa952ba7f163c4a11628f55a4df523b3ef60405160405180910390a461189f83838361221e565b505050565b8173ffffffffffffffffffffffffffffffffffffffff168373ffffffffffffffffffffffffffffffffffffffff161415611913576040517f08c379a000000000000000000000000000000000000000000000000000000000815260040161190a90613261565b60405180910390fd5b80600560008573ffffffffffffffffffffffffffffffffffffffff1673ffffffffffffffffffffffffffffffffffffffff16815260200190815260200160002060008473ffffffffffffffffffffffffffffffffffffffff1673ffffffffffffffffffffffffffffffffffffffff16815260200190815260200160002060006101000a81548160ff0219169083151502179055508173ffffffffffffffffffffffffffffffffffffffff168373ffffffffffffffffffffffffffffffffffffffff167f17307eab39ab6107e8899845ad3d59bd9653f200f220920489ca2b5937696c3183604051611a04919061316d565b60405180910390a3505050565b611a1c84848461163d565b611a2884848484612223565b611a67576040517f08c379a0000000000000000000000000000000000000000000000000000000008152600401611a5e906131e1565b60405180910390fd5b50505050565b606060405180602001604052806000815250905090565b6060611a8f8261149c565b6000611a99611a6d565b90506000815111611ab95760405180602001604052806000815250611ae4565b80611ac384611cd5565b604051602001611ad4929190613032565b6040516020818303038152906040525b915050919050565b600081600001549050919050565b60008060008084519050600092505b80821015611cca576000858381518110611b4c577f4e487b7100000000000000000000000000000000000000000000000000000000600052603260045260246000fd5b602001015160f81c60f81b9050608060f81b817effffffffffffffffffffffffffffffffffffffffffffffffffffffffffffff19161015611b9b57600183611b94919061347b565b9250611cb6565b60e060f81b817effffffffffffffffffffffffffffffffffffffffffffffffffffffffffffff19161015611bdd57600283611bd6919061347b565b9250611cb5565b60f060f81b817effffffffffffffffffffffffffffffffffffffffffffffffffffffffffffff19161015611c1f57600383611c18919061347b565b9250611cb4565b60f8801b817effffffffffffffffffffffffffffffffffffffffffffffffffffffffffffff19161015611c6057600483611c59919061347b565b9250611cb3565b60fc60f81b817effffffffffffffffffffffffffffffffffffffffffffffffffffffffffffff19161015611ca257600583611c9b919061347b565b9250611cb2565b600683611caf919061347b565b92505b5b5b5b5b508280611cc2906136a9565b935050611b09565b829350505050919050565b60606000821415611d1d576040518060400160405280600181526020017f30000000000000000000000000000000000000000000000000000000000000008152509050611e7d565b600082905060005b60008214611d4f578080611d38906136a9565b915050600a82611d4891906134d1565b9150611d25565b60008167ffffffffffffffff811115611d91577f4e487b7100000000000000000000000000000000000000000000000000000000600052604160045260246000fd5b6040519080825280601f01601f191660200182016040528015611dc35781602001600182028036833780820191505090505b5090505b60008514611e7657600182611ddc919061355c565b9150600a85611deb91906136f2565b6030611df7919061347b565b60f81b818381518110611e33577f4e487b7100000000000000000000000000000000000000000000000000000000600052603260045260246000fd5b60200101907effffffffffffffffffffffffffffffffffffffffffffffffffffffffffffff1916908160001a905350600a85611e6f91906134d1565b9450611dc7565b8093505050505b919050565b60606000825190506000811415611eab576040518060200160405280600081525091505061203b565b60006003600283611ebc919061347b565b611ec691906134d1565b6004611ed29190613502565b90506000602082611ee3919061347b565b67ffffffffffffffff811115611f22577f4e487b7100000000000000000000000000000000000000000000000000000000600052604160045260246000fd5b6040519080825280601f01601f191660200182016040528015611f545781602001600182028036833780820191505090505b5090506000604051806060016040528060408152602001613d46604091399050600181016020830160005b86811015611ff85760038101905062ffffff818a015116603f8160121c168401518060081b905060ff603f83600c1c1686015116810190508060081b905060ff603f8360061c1686015116810190508060081b905060ff603f831686015116810190508060e01b90508084526004840193505050611f7f565b50600386066001811461201257600281146120225761202d565b613d3d60f01b600283035261202d565b603d60f81b60018303525b508484525050819450505050505b919050565b6120d882826040516024016120569291906131aa565b6040516020818303038152906040527f4b5c4277000000000000000000000000000000000000000000000000000000007bffffffffffffffffffffffffffffffffffffffffffffffffffffffff19166020820180517bffffffffffffffffffffffffffffffffffffffffffffffffffffffff8381831617835250505050612184565b5050565b6120f68282604051806020016040528060008152506123ba565b5050565b612103826121ad565b612142576040517f08c379a0000000000000000000000000000000000000000000000000000000008152600401612139906132a1565b60405180910390fd5b80600660008481526020019081526020016000209080519060200190612169929190612698565b505050565b6001816000016000828254019250508190555050565b60008151905060006a636f6e736f6c652e6c6f679050602083016000808483855afa5050505050565b60008073ffffffffffffffffffffffffffffffffffffffff166002600084815260200190815260200160002060009054906101000a900473ffffffffffffffffffffffffffffffffffffffff1673ffffffffffffffffffffffffffffffffffffffff1614159050919050565b505050565b505050565b60006122448473ffffffffffffffffffffffffffffffffffffffff16612415565b156123ad578373ffffffffffffffffffffffffffffffffffffffff1663150b7a0261226d6114e7565b8786866040518563ffffffff1660e01b815260040161228f9493929190613121565b602060405180830381600087803b1580156122a957600080fd5b505af19250505080156122da57506040513d601f19601f820116820180604052508101906122d79190612a8e565b60015b61235d573d806000811461230a576040519150601f19603f3d011682016040523d82523d6000602084013e61230f565b606091505b50600081511415612355576040517f08c379a000000000000000000000000000000000000000000000000000000000815260040161234c906131e1565b60405180910390fd5b805181602001fd5b63150b7a0260e01b7bffffffffffffffffffffffffffffffffffffffffffffffffffffffff1916817bffffffffffffffffffffffffffffffffffffffffffffffffffffffff1916149150506123b2565b600190505b949350505050565b6123c48383612438565b6123d16000848484612223565b612410576040517f08c379a0000000000000000000000000000000000000000000000000000000008152600401612407906131e1565b60405180910390fd5b505050565b6000808273ffffffffffffffffffffffffffffffffffffffff163b119050919050565b600073ffffffffffffffffffffffffffffffffffffffff168273ffffffffffffffffffffffffffffffffffffffff1614156124a8576040517f08c379a000000000000000000000000000000000000000000000000000000000815260040161249f906132e1565b60405180910390fd5b6124b1816121ad565b156124f1576040517f08c379a00000000000000000000000000000000000000000000000000000000081526004016124e890613221565b60405180910390fd5b6124fd60008383612219565b6001600360008473ffffffffffffffffffffffffffffffffffffffff1673ffffffffffffffffffffffffffffffffffffffff168152602001908152602001600020600082825461254d919061347b565b92505081905550816002600083815260200190815260200160002060006101000a81548173ffffffffffffffffffffffffffffffffffffffff021916908373ffffffffffffffffffffffffffffffffffffffff160217905550808273ffffffffffffffffffffffffffffffffffffffff16600073ffffffffffffffffffffffffffffffffffffffff167fddf252ad1be2c89b69c2b068fc378daa952ba7f163c4a11628f55a4df523b3ef60405160405180910390a461260e6000838361221e565b5050565b82805461261e90613646565b90600052602060002090601f0160209004810192826126405760008555612687565b82601f1061265957803560ff1916838001178555612687565b82800160010185558215612687579182015b8281111561268657823582559160200191906001019061266b565b5b509050612694919061271e565b5090565b8280546126a490613646565b90600052602060002090601f0160209004810192826126c6576000855561270d565b82601f106126df57805160ff191683800117855561270d565b8280016001018555821561270d579182015b8281111561270c5782518255916020019190600101906126f1565b5b50905061271a919061271e565b5090565b5b8082111561273757600081600090555060010161271f565b5090565b600061274e612749846133c1565b61339c565b90508281526020810184848401111561276657600080fd5b612771848285613604565b509392505050565b600061278c612787846133f2565b61339c565b9050828152602081018484840111156127a457600080fd5b6127af848285613604565b509392505050565b6000813590506127c681613c77565b92915050565b6000813590506127db81613c8e565b92915050565b6000813590506127f081613ca5565b92915050565b60008151905061280581613ca5565b92915050565b600082601f83011261281c57600080fd5b813561282c84826020860161273b565b91505092915050565b60008083601f84011261284757600080fd5b8235905067ffffffffffffffff81111561286057600080fd5b60208301915083600182028301111561287857600080fd5b9250929050565b600082601f83011261289057600080fd5b81356128a0848260208601612779565b91505092915050565b6000813590506128b881613cbc565b92915050565b6000602082840312156128d057600080fd5b60006128de848285016127b7565b91505092915050565b600080604083850312156128fa57600080fd5b6000612908858286016127b7565b9250506020612919858286016127b7565b9150509250929050565b60008060006060848603121561293857600080fd5b6000612946868287016127b7565b9350506020612957868287016127b7565b9250506040612968868287016128a9565b9150509250925092565b6000806000806080858703121561298857600080fd5b6000612996878288016127b7565b94505060206129a7878288016127b7565b93505060406129b8878288016128a9565b925050606085013567ffffffffffffffff8111156129d557600080fd5b6129e18782880161280b565b91505092959194509250565b60008060408385031215612a0057600080fd5b6000612a0e858286016127b7565b9250506020612a1f858286016127cc565b9150509250929050565b60008060408385031215612a3c57600080fd5b6000612a4a858286016127b7565b9250506020612a5b858286016128a9565b9150509250929050565b600060208284031215612a7757600080fd5b6000612a85848285016127e1565b91505092915050565b600060208284031215612aa057600080fd5b6000612aae848285016127f6565b91505092915050565b60008060208385031215612aca57600080fd5b600083013567ffffffffffffffff811115612ae457600080fd5b612af085828601612835565b92509250509250929050565b60008060008060408587031215612b1257600080fd5b600085013567ffffffffffffffff811115612b2c57600080fd5b612b3887828801612835565b9450945050602085013567ffffffffffffffff811115612b5757600080fd5b612b6387828801612835565b925092505092959194509250565b600060208284031215612b8357600080fd5b600082013567ffffffffffffffff811115612b9d57600080fd5b612ba98482850161287f565b91505092915050565b600060208284031215612bc457600080fd5b6000612bd2848285016128a9565b91505092915050565b612be481613590565b82525050565b612bf3816135a2565b82525050565b6000612c0482613438565b612c0e818561344e565b9350612c1e818560208601613613565b612c27816137df565b840191505092915050565b6000612c3e8385613470565b9350612c4b838584613604565b82840190509392505050565b6000612c6282613443565b612c6c818561345f565b9350612c7c818560208601613613565b612c85816137df565b840191505092915050565b6000612c9b82613443565b612ca58185613470565b9350612cb5818560208601613613565b80840191505092915050565b60008154612cce81613646565b612cd88186613470565b94506001821660008114612cf35760018114612d0457612d37565b60ff19831686528186019350612d37565b612d0d85613423565b60005b83811015612d2f57815481890152600182019150602081019050612d10565b838801955050505b50505092915050565b6000612d4d60328361345f565b9150612d58826137f0565b604082019050919050565b6000612d7060258361345f565b9150612d7b8261383f565b604082019050919050565b6000612d93601c8361345f565b9150612d9e8261388e565b602082019050919050565b6000612db6605c83613470565b9150612dc1826138b7565b605c82019050919050565b6000612dd960248361345f565b9150612de48261392c565b604082019050919050565b6000612dfc60198361345f565b9150612e078261397b565b602082019050919050565b6000612e1f60298361345f565b9150612e2a826139a4565b604082019050919050565b6000612e42600183613470565b9150612e4d826139f3565b600182019050919050565b6000612e65602e8361345f565b9150612e7082613a1c565b604082019050919050565b6000612e88600283613470565b9150612e9382613a6b565b600282019050919050565b6000612eab603e8361345f565b9150612eb682613a94565b604082019050919050565b6000612ece60208361345f565b9150612ed982613ae3565b602082019050919050565b6000612ef1600a83613470565b9150612efc82613b0c565b600a82019050919050565b6000612f1460188361345f565b9150612f1f82613b35565b602082019050919050565b6000612f3760218361345f565b9150612f4282613b5e565b604082019050919050565b6000612f5a60148361345f565b9150612f6582613bad565b602082019050919050565b6000612f7d601d83613470565b9150612f8882613bd6565b601d82019050919050565b6000612fa0600c83613470565b9150612fab82613bff565b600c82019050919050565b6000612fc3602e8361345f565b9150612fce82613c28565b604082019050919050565b612fe2816135fa565b82525050565b6000612ff5828486612c32565b91508190509392505050565b600061300e828587612c32565b915061301982612e35565b91506130258284612cc1565b9150819050949350505050565b600061303e8285612c90565b915061304a8284612c90565b91508190509392505050565b60006130628286612cc1565b915061306e8285612c90565b915061307a8284612cc1565b9150819050949350505050565b600061309282612ee4565b915061309e8286612c90565b91506130a982612da9565b91506130b58285612c90565b91506130c082612f93565b91506130cc8284612c90565b91506130d782612e7b565b9150819050949350505050565b60006130ef82612f70565b91506130fb8284612c90565b915081905092915050565b600060208201905061311b6000830184612bdb565b92915050565b60006080820190506131366000830187612bdb565b6131436020830186612bdb565b6131506040830185612fd9565b81810360608301526131628184612bf9565b905095945050505050565b60006020820190506131826000830184612bea565b92915050565b600060208201905081810360008301526131a28184612c57565b905092915050565b600060408201905081810360008301526131c48185612c57565b905081810360208301526131d88184612c57565b90509392505050565b600060208201905081810360008301526131fa81612d40565b9050919050565b6000602082019050818103600083015261321a81612d63565b9050919050565b6000602082019050818103600083015261323a81612d86565b9050919050565b6000602082019050818103600083015261325a81612dcc565b9050919050565b6000602082019050818103600083015261327a81612def565b9050919050565b6000602082019050818103600083015261329a81612e12565b9050919050565b600060208201905081810360008301526132ba81612e58565b9050919050565b600060208201905081810360008301526132da81612e9e565b9050919050565b600060208201905081810360008301526132fa81612ec1565b9050919050565b6000602082019050818103600083015261331a81612f07565b9050919050565b6000602082019050818103600083015261333a81612f2a565b9050919050565b6000602082019050818103600083015261335a81612f4d565b9050919050565b6000602082019050818103600083015261337a81612fb6565b9050919050565b60006020820190506133966000830184612fd9565b92915050565b60006133a66133b7565b90506133b28282613678565b919050565b6000604051905090565b600067ffffffffffffffff8211156133dc576133db6137b0565b5b6133e5826137df565b9050602081019050919050565b600067ffffffffffffffff82111561340d5761340c6137b0565b5b613416826137df565b9050602081019050919050565b60008190508160005260206000209050919050565b600081519050919050565b600081519050919050565b600082825260208201905092915050565b600082825260208201905092915050565b600081905092915050565b6000613486826135fa565b9150613491836135fa565b9250827fffffffffffffffffffffffffffffffffffffffffffffffffffffffffffffffff038211156134c6576134c5613723565b5b828201905092915050565b60006134dc826135fa565b91506134e7836135fa565b9250826134f7576134f6613752565b5b828204905092915050565b600061350d826135fa565b9150613518836135fa565b9250817fffffffffffffffffffffffffffffffffffffffffffffffffffffffffffffffff048311821515161561355157613550613723565b5b828202905092915050565b6000613567826135fa565b9150613572836135fa565b92508282101561358557613584613723565b5b828203905092915050565b600061359b826135da565b9050919050565b60008115159050919050565b60007fffffffff0000000000000000000000000000000000000000000000000000000082169050919050565b600073ffffffffffffffffffffffffffffffffffffffff82169050919050565b6000819050919050565b82818337600083830152505050565b60005b83811015613631578082015181840152602081019050613616565b83811115613640576000848401525b50505050565b6000600282049050600182168061365e57607f821691505b6020821081141561367257613671613781565b5b50919050565b613681826137df565b810181811067ffffffffffffffff821117156136a05761369f6137b0565b5b80604052505050565b60006136b4826135fa565b91507fffffffffffffffffffffffffffffffffffffffffffffffffffffffffffffffff8214156136e7576136e6613723565b5b600182019050919050565b60006136fd826135fa565b9150613708836135fa565b92508261371857613717613752565b5b828206905092915050565b7f4e487b7100000000000000000000000000000000000000000000000000000000600052601160045260246000fd5b7f4e487b7100000000000000000000000000000000000000000000000000000000600052601260045260246000fd5b7f4e487b7100000000000000000000000000000000000000000000000000000000600052602260045260246000fd5b7f4e487b7100000000000000000000000000000000000000000000000000000000600052604160045260246000fd5b6000601f19601f8301169050919050565b7f4552433732313a207472616e7366657220746f206e6f6e20455243373231526560008201527f63656976657220696d706c656d656e7465720000000000000000000000000000602082015250565b7f4552433732313a207472616e736665722066726f6d20696e636f72726563742060008201527f6f776e6572000000000000000000000000000000000000000000000000000000602082015250565b7f4552433732313a20746f6b656e20616c7265616479206d696e74656400000000600082015250565b7f222c20226465736372697074696f6e223a20224120646f6d61696e206f6e207460008201527f6865204e696e6a61206e616d652073657276696365222c2022696d616765223a60208201527f2022646174613a696d6167652f7376672b786d6c3b6261736536342c00000000604082015250565b7f4552433732313a207472616e7366657220746f20746865207a65726f2061646460008201527f7265737300000000000000000000000000000000000000000000000000000000602082015250565b7f4552433732313a20617070726f766520746f2063616c6c657200000000000000600082015250565b7f4552433732313a2061646472657373207a65726f206973206e6f74206120766160008201527f6c6964206f776e65720000000000000000000000000000000000000000000000602082015250565b7f2e00000000000000000000000000000000000000000000000000000000000000600082015250565b7f45524337323155524953746f726167653a2055524920736574206f66206e6f6e60008201527f6578697374656e7420746f6b656e000000000000000000000000000000000000602082015250565b7f227d000000000000000000000000000000000000000000000000000000000000600082015250565b7f4552433732313a20617070726f76652063616c6c6572206973206e6f7420746f60008201527f6b656e206f776e6572206e6f7220617070726f76656420666f7220616c6c0000602082015250565b7f4552433732313a206d696e7420746f20746865207a65726f2061646472657373600082015250565b7f7b226e616d65223a202200000000000000000000000000000000000000000000600082015250565b7f4552433732313a20696e76616c696420746f6b656e2049440000000000000000600082015250565b7f4552433732313a20617070726f76616c20746f2063757272656e74206f776e6560008201527f7200000000000000000000000000000000000000000000000000000000000000602082015250565b7f4e6f7420656e6f756768204d6174696320706964000000000000000000000000600082015250565b7f646174613a6170706c69636174696f6e2f6a736f6e3b6261736536342c000000600082015250565b7f222c226c656e677468223a220000000000000000000000000000000000000000600082015250565b7f4552433732313a2063616c6c6572206973206e6f7420746f6b656e206f776e6560008201527f72206e6f7220617070726f766564000000000000000000000000000000000000602082015250565b613c8081613590565b8114613c8b57600080fd5b50565b613c97816135a2565b8114613ca257600080fd5b50565b613cae816135ae565b8114613cb957600080fd5b50565b613cc5816135fa565b8114613cd057600080fd5b5056fe0a2d2d2d2d2d2d2d2d2d2d2d2d2d2d2d2d2d2d2d2d2d2d2d2d2d2d2d2d2d2d2d2d2d2d2d2d2d2d2d2d2d2d2d2d2d2d2d2d2d2d2d2d2d2d2d2d2d2d2d2d2d2d2d2d2d2d2d2d2d2d2d2d2d2d2d2d2d2d2d2d2d2d2d2d2d2d2d2d2d2d2d2d2d2d2d2d2d2d2d2d2d2d2d2d2d2d2d2d2d2d2d2d0a4142434445464748494a4b4c4d4e4f505152535455565758595a6162636465666768696a6b6c6d6e6f707172737475767778797a303132333435363738392b2fa2646970667358221220f35462fd4096778aa6002b4a9c9661e353eb587847e6d7173c596fd711bdb09364736f6c634300080400333c73766720786d6c6e733d22687474703a2f2f7777772e77332e6f72672f323030302f737667222077696474683d2232373022206865696768743d22323730222066696c6c3d226e6f6e65223e3c706174682066696c6c3d2275726c282342292220643d224d302030683237307632373048307a222f3e3c646566733e3c66696c7465722069643d22412220636f6c6f722d696e746572706f6c6174696f6e2d66696c746572733d2273524742222066696c746572556e6974733d227573657253706163654f6e55736522206865696768743d22323730222077696474683d22323730223e3c666544726f70536861646f772064783d2230222064793d22312220737464446576696174696f6e3d22322220666c6f6f642d6f7061636974793d222e323235222077696474683d223230302522206865696768743d2232303025222f3e3c2f66696c7465723e3c2f646566733e3c7061746820643d224d37322e3836332034322e393439632d2e3636382d2e3338372d312e3432362d2e35392d322e3139372d2e3539732d312e3532392e3230342d322e3139372e35396c2d31302e30383120362e3033322d362e383520332e3933342d31302e30383120362e303332632d2e3636382e3338372d312e3432362e35392d322e3139372e3539732d312e3532392d2e3230342d322e3139372d2e35396c2d382e3031332d342e37323161342e353220342e35322030203020312d312e3538392d312e363136632d2e3338342d2e3636352d2e3539342d312e3431382d2e3630382d322e313837762d392e3331632d2e3031332d2e3737352e3138352d312e3533382e3537322d322e32303861342e323520342e323520302030203120312e3632352d312e3539356c372e3838342d342e3539632e3636382d2e33383720312e3432362d2e353920322e3139372d2e353973312e3532392e32303420322e3139372e35396c372e38383420342e353961342e353220342e353220302030203120312e35383920312e363136632e3338342e3636352e35393420312e3431382e36303820322e31383776362e3033326c362e38352d342e303635762d362e303332632e3031332d2e3737352d2e3138352d312e3533382d2e3537322d322e32303861342e323520342e32352030203020302d312e3632352d312e3539354c34312e3435362032342e3539632d2e3636382d2e3338372d312e3432362d2e35392d322e3139372d2e3539732d312e3532392e3230342d322e3139372e35396c2d31342e38363420382e36353561342e323520342e32352030203020302d312e36323520312e353935632d2e3338372e36372d2e35383520312e3433342d2e35373220322e3230387631372e343431632d2e3031332e3737352e31383520312e3533382e35373220322e32303861342e323520342e323520302030203020312e36323520312e3539356c31342e38363420382e363535632e3636382e33383720312e3432362e353920322e3139372e353973312e3532392d2e32303420322e3139372d2e35396c31302e3038312d352e39303120362e38352d342e3036352031302e3038312d352e393031632e3636382d2e33383720312e3432362d2e353920322e3139372d2e353973312e3532392e32303420322e3139372e35396c372e38383420342e353961342e353220342e353220302030203120312e35383920312e363136632e3338342e3636352e35393420312e3431382e36303820322e31383776392e333131632e3031332e3737352d2e31383520312e3533382d2e35373220322e32303861342e323520342e32352030203020312d312e36323520312e3539356c2d372e38383420342e373231632d2e3636382e3338372d312e3432362e35392d322e3139372e3539732d312e3532392d2e3230342d322e3139372d2e35396c2d372e3838342d342e353961342e353220342e35322030203020312d312e3538392d312e363136632d2e3338352d2e3636352d2e3539342d312e3431382d2e3630382d322e313837762d362e3033326c2d362e383520342e30363576362e303332632d2e3031332e3737352e31383520312e3533382e35373220322e32303861342e323520342e323520302030203020312e36323520312e3539356c31342e38363420382e363535632e3636382e33383720312e3432362e353920322e3139372e353973312e3532392d2e32303420322e3139372d2e35396c31342e3836342d382e363535632e3635372d2e33393420312e3230342d2e393520312e3538392d312e363136732e3539342d312e3431382e3630392d322e3138375635352e353338632e3031332d2e3737352d2e3138352d312e3533382d2e3537322d322e32303861342e323520342e32352030203020302d312e3632352d312e3539356c2d31342e3939332d382e3738367a222066696c6c3d2223666666222f3e3c646566733e3c6c696e6561724772616469656e742069643d2242222078313d2230222079313d2230222078323d22323730222079323d2232373022206772616469656e74556e6974733d227573657253706163654f6e557365223e3c73746f702073746f702d636f6c6f723d2223636235656565222f3e3c73746f70206f66667365743d2231222073746f702d636f6c6f723d2223306364376534222073746f702d6f7061636974793d222e3939222f3e3c2f6c696e6561724772616469656e743e3c2f646566733e3c7465787420783d2233322e352220793d223233312220666f6e742d73697a653d223237222066696c6c3d2223666666222066696c7465723d2275726c282341292220666f6e742d66616d696c793d22506c7573204a616b617274612053616e732c44656a6156752053616e732c4e6f746f20436f6c6f7220456d6f6a692c4170706c6520436f6c6f7220456d6f6a692c73616e732d73657269662220666f6e742d7765696768743d22626f6c64223e",
  "linkReferences": {},
  "deployedLinkReferences": {}
}